No.     Time           Source                Destination           Protocol Length Info
      1 0.000000       2a01:cb14:d31:4a00:12b:873b:196e:e52b 2a01:cb14:d31:4a00:7ec1:77ff:fe4b:17a0 ICMPv6   86     Neighbor Solicitation for 2a01:cb14:d31:4a00:7ec1:77ff:fe4b:17a0 from 08:d2:3e:e9:06:7e

Frame 1: 86 bytes on wire (688 bits), 86 bytes captured (688 bits)
    Encapsulation type: Ethernet (1)
    Arrival Time: Aug 14, 2023 11:43:03.000000000 Paris, Madrid (heure d’été)
    UTC Arrival Time: Aug 14, 2023 09:43:03.000000000 UTC
    Epoch Arrival Time: 1692006183.000000000
    [Time shift for this packet: 0.000000000 seconds]
    [Time delta from previous captured frame: 0.000000000 seconds]
    [Time delta from previous displayed frame: 0.000000000 seconds]
    [Time since reference or first frame: 0.000000000 seconds]
    Frame Number: 1
    Frame Length: 86 bytes (688 bits)
    Capture Length: 86 bytes (688 bits)
    [Frame is marked: False]
    [Frame is ignored: False]
    [Protocols in frame: eth:ethertype:ipv6:icmpv6]
    [Coloring Rule Name: ICMP]
    [Coloring Rule String: icmp || icmpv6]
Ethernet II, Src: Intel_e9:06:7e (08:d2:3e:e9:06:7e), Dst: IngramMicroS_4b:17:a0 (7c:c1:77:4b:17:a0)
    Destination: IngramMicroS_4b:17:a0 (7c:c1:77:4b:17:a0)
        .... ..0. .... .... .... .... = LG bit: Globally unique address (factory default)
        .... ...0 .... .... .... .... = IG bit: Individual address (unicast)
    Source: Intel_e9:06:7e (08:d2:3e:e9:06:7e)
        .... ..0. .... .... .... .... = LG bit: Globally unique address (factory default)
        .... ...0 .... .... .... .... = IG bit: Individual address (unicast)
    Type: IPv6 (0x86dd)
    [Stream index: 0]
Internet Protocol Version 6, Src: 2a01:cb14:d31:4a00:12b:873b:196e:e52b, Dst: 2a01:cb14:d31:4a00:7ec1:77ff:fe4b:17a0
    0110 .... = Version: 6
    .... 0000 0000 .... .... .... .... .... = Traffic Class: 0x00 (DSCP: CS0, ECN: Not-ECT)
        .... 0000 00.. .... .... .... .... .... = Differentiated Services Codepoint: Default (0)
        .... .... ..00 .... .... .... .... .... = Explicit Congestion Notification: Not ECN-Capable Transport (0)
    .... 0000 0000 0000 0000 0000 = Flow Label: 0x00000
    Payload Length: 32
    Next Header: ICMPv6 (58)
    Hop Limit: 255
    Source Address: 2a01:cb14:d31:4a00:12b:873b:196e:e52b
        [Address Space: Global Unicast]
    Destination Address: 2a01:cb14:d31:4a00:7ec1:77ff:fe4b:17a0
        [Address Space: Global Unicast]
    [Destination SLAAC MAC: IngramMicroS_4b:17:a0 (7c:c1:77:4b:17:a0)]
    [Stream index: 0]
Internet Control Message Protocol v6
    Type: Neighbor Solicitation (135)
    Code: 0
    Checksum: 0xa43a [correct]
    [Checksum Status: Good]
    Reserved: 00000000
    Target Address: 2a01:cb14:d31:4a00:7ec1:77ff:fe4b:17a0
    ICMPv6 Option (Source link-layer address : 08:d2:3e:e9:06:7e)
        Type: Source link-layer address (1)
        Length: 1 (8 bytes)
        Link-layer address: Intel_e9:06:7e (08:d2:3e:e9:06:7e)

0000  7c c1 77 4b 17 a0 08 d2 3e e9 06 7e 86 dd 60 00   |.wK....>..~..`.
0010  00 00 00 20 3a ff 2a 01 cb 14 0d 31 4a 00 01 2b   ... :.*....1J..+
0020  87 3b 19 6e e5 2b 2a 01 cb 14 0d 31 4a 00 7e c1   .;.n.+*....1J.~.
0030  77 ff fe 4b 17 a0 87 00 a4 3a 00 00 00 00 2a 01   w..K.....:....*.
0040  cb 14 0d 31 4a 00 7e c1 77 ff fe 4b 17 a0 01 01   ...1J.~.w..K....
0050  08 d2 3e e9 06 7e                                 ..>..~

No.     Time           Source                Destination           Protocol Length Info
      2 0.000000       2a01:cb14:d31:4a00:7ec1:77ff:fe4b:17a0 2a01:cb14:d31:4a00:12b:873b:196e:e52b ICMPv6   78     Neighbor Advertisement 2a01:cb14:d31:4a00:7ec1:77ff:fe4b:17a0 (rtr, sol)

Frame 2: 78 bytes on wire (624 bits), 78 bytes captured (624 bits)
    Encapsulation type: Ethernet (1)
    Arrival Time: Aug 14, 2023 11:43:03.000000000 Paris, Madrid (heure d’été)
    UTC Arrival Time: Aug 14, 2023 09:43:03.000000000 UTC
    Epoch Arrival Time: 1692006183.000000000
    [Time shift for this packet: 0.000000000 seconds]
    [Time delta from previous captured frame: 0.000000000 seconds]
    [Time delta from previous displayed frame: 0.000000000 seconds]
    [Time since reference or first frame: 0.000000000 seconds]
    Frame Number: 2
    Frame Length: 78 bytes (624 bits)
    Capture Length: 78 bytes (624 bits)
    [Frame is marked: False]
    [Frame is ignored: False]
    [Protocols in frame: eth:ethertype:ipv6:icmpv6]
    [Coloring Rule Name: ICMP]
    [Coloring Rule String: icmp || icmpv6]
Ethernet II, Src: IngramMicroS_4b:17:a0 (7c:c1:77:4b:17:a0), Dst: Intel_e9:06:7e (08:d2:3e:e9:06:7e)
    Destination: Intel_e9:06:7e (08:d2:3e:e9:06:7e)
        .... ..0. .... .... .... .... = LG bit: Globally unique address (factory default)
        .... ...0 .... .... .... .... = IG bit: Individual address (unicast)
    Source: IngramMicroS_4b:17:a0 (7c:c1:77:4b:17:a0)
        .... ..0. .... .... .... .... = LG bit: Globally unique address (factory default)
        .... ...0 .... .... .... .... = IG bit: Individual address (unicast)
    Type: IPv6 (0x86dd)
    [Stream index: 0]
Internet Protocol Version 6, Src: 2a01:cb14:d31:4a00:7ec1:77ff:fe4b:17a0, Dst: 2a01:cb14:d31:4a00:12b:873b:196e:e52b
    0110 .... = Version: 6
    .... 1100 0000 .... .... .... .... .... = Traffic Class: 0xc0 (DSCP: CS6, ECN: Not-ECT)
        .... 1100 00.. .... .... .... .... .... = Differentiated Services Codepoint: Class Selector 6 (48)
        .... .... ..00 .... .... .... .... .... = Explicit Congestion Notification: Not ECN-Capable Transport (0)
    .... 0000 0000 0000 0000 0000 = Flow Label: 0x00000
    Payload Length: 24
    Next Header: ICMPv6 (58)
    Hop Limit: 255
    Source Address: 2a01:cb14:d31:4a00:7ec1:77ff:fe4b:17a0
        [Address Space: Global Unicast]
    Destination Address: 2a01:cb14:d31:4a00:12b:873b:196e:e52b
        [Address Space: Global Unicast]
    [Source SLAAC MAC: IngramMicroS_4b:17:a0 (7c:c1:77:4b:17:a0)]
    [Stream index: 0]
Internet Control Message Protocol v6
    Type: Neighbor Advertisement (136)
    Code: 0
    Checksum: 0x327c [correct]
    [Checksum Status: Good]
    Flags: 0xc0000000, Router, Solicited
        1... .... .... .... .... .... .... .... = Router: Set
        .1.. .... .... .... .... .... .... .... = Solicited: Set
        ..0. .... .... .... .... .... .... .... = Override: Not set
        ...0 0000 0000 0000 0000 0000 0000 0000 = Reserved: 0
    Target Address: 2a01:cb14:d31:4a00:7ec1:77ff:fe4b:17a0

0000  08 d2 3e e9 06 7e 7c c1 77 4b 17 a0 86 dd 6c 00   ..>..~|.wK....l.
0010  00 00 00 18 3a ff 2a 01 cb 14 0d 31 4a 00 7e c1   ....:.*....1J.~.
0020  77 ff fe 4b 17 a0 2a 01 cb 14 0d 31 4a 00 01 2b   w..K..*....1J..+
0030  87 3b 19 6e e5 2b 88 00 32 7c c0 00 00 00 2a 01   .;.n.+..2|....*.
0040  cb 14 0d 31 4a 00 7e c1 77 ff fe 4b 17 a0         ...1J.~.w..K..

No.     Time           Source                Destination           Protocol Length Info
      3 0.000000       192.168.1.1           224.0.0.1             IGMPv2   60     Membership Query, general

Frame 3: 60 bytes on wire (480 bits), 60 bytes captured (480 bits)
    Encapsulation type: Ethernet (1)
    Arrival Time: Aug 14, 2023 11:43:03.000000000 Paris, Madrid (heure d’été)
    UTC Arrival Time: Aug 14, 2023 09:43:03.000000000 UTC
    Epoch Arrival Time: 1692006183.000000000
    [Time shift for this packet: 0.000000000 seconds]
    [Time delta from previous captured frame: 0.000000000 seconds]
    [Time delta from previous displayed frame: 0.000000000 seconds]
    [Time since reference or first frame: 0.000000000 seconds]
    Frame Number: 3
    Frame Length: 60 bytes (480 bits)
    Capture Length: 60 bytes (480 bits)
    [Frame is marked: False]
    [Frame is ignored: False]
    [Protocols in frame: eth:ethertype:ip:igmp:igmp]
    [Coloring Rule Name: Routing]
    [Coloring Rule String: hsrp || eigrp || ospf || bgp || cdp || vrrp || carp || gvrp || igmp || ismp]
Ethernet II, Src: IngramMicroS_4b:17:a0 (7c:c1:77:4b:17:a0), Dst: IPv4mcast_01 (01:00:5e:00:00:01)
    Destination: IPv4mcast_01 (01:00:5e:00:00:01)
        .... ..0. .... .... .... .... = LG bit: Globally unique address (factory default)
        .... ...1 .... .... .... .... = IG bit: Group address (multicast/broadcast)
    Source: IngramMicroS_4b:17:a0 (7c:c1:77:4b:17:a0)
        .... ..0. .... .... .... .... = LG bit: Globally unique address (factory default)
        .... ...0 .... .... .... .... = IG bit: Individual address (unicast)
    Type: IPv4 (0x0800)
    [Stream index: 1]
    Padding: 0000000000000000000000000000
Internet Protocol Version 4, Src: 192.168.1.1, Dst: 224.0.0.1
    0100 .... = Version: 4
    .... 0110 = Header Length: 24 bytes (6)
    Differentiated Services Field: 0x80 (DSCP: CS4, ECN: Not-ECT)
        1000 00.. = Differentiated Services Codepoint: Class Selector 4 (32)
        .... ..00 = Explicit Congestion Notification: Not ECN-Capable Transport (0)
    Total Length: 32
    Identification: 0x0000 (0)
    010. .... = Flags: 0x2, Don't fragment
        0... .... = Reserved bit: Not set
        .1.. .... = Don't fragment: Set
        ..0. .... = More fragments: Not set
    ...0 0000 0000 0000 = Fragment Offset: 0
    Time to Live: 1
    Protocol: IGMP (2)
    Header Checksum: 0x42ad [validation disabled]
    [Header checksum status: Unverified]
    Source Address: 192.168.1.1
    Destination Address: 224.0.0.1
    Options: (4 bytes), Router Alert
        IP Option - Router Alert (4 bytes): Router shall examine packet (0)
            Type: 148
                1... .... = Copy on fragmentation: Yes
                .00. .... = Class: Control (0)
                ...1 0100 = Number: Router Alert (20)
            Length: 4
            Router Alert: Router shall examine packet (0)
    [Stream index: 0]
Internet Group Management Protocol
    [IGMP Version: 2]
    Type: Membership Query (0x11)
    Max Resp Time: 10,0 sec (0x64)
    Checksum: 0xee9b [correct]
    [Checksum Status: Good]
    Multicast Address: 0.0.0.0

0000  01 00 5e 00 00 01 7c c1 77 4b 17 a0 08 00 46 80   ..^...|.wK....F.
0010  00 20 00 00 40 00 01 02 42 ad c0 a8 01 01 e0 00   . ..@...B.......
0020  00 01 94 04 00 00 11 64 ee 9b 00 00 00 00 00 00   .......d........
0030  00 00 00 00 00 00 00 00 00 00 00 00               ............

No.     Time           Source                Destination           Protocol Length Info
      4 0.000000       192.168.1.10          224.0.0.251           IGMPv2   46     Membership Report group 224.0.0.251

Frame 4: 46 bytes on wire (368 bits), 46 bytes captured (368 bits)
    Encapsulation type: Ethernet (1)
    Arrival Time: Aug 14, 2023 11:43:03.000000000 Paris, Madrid (heure d’été)
    UTC Arrival Time: Aug 14, 2023 09:43:03.000000000 UTC
    Epoch Arrival Time: 1692006183.000000000
    [Time shift for this packet: 0.000000000 seconds]
    [Time delta from previous captured frame: 0.000000000 seconds]
    [Time delta from previous displayed frame: 0.000000000 seconds]
    [Time since reference or first frame: 0.000000000 seconds]
    Frame Number: 4
    Frame Length: 46 bytes (368 bits)
    Capture Length: 46 bytes (368 bits)
    [Frame is marked: False]
    [Frame is ignored: False]
    [Protocols in frame: eth:ethertype:ip:igmp:igmp]
    [Coloring Rule Name: Routing]
    [Coloring Rule String: hsrp || eigrp || ospf || bgp || cdp || vrrp || carp || gvrp || igmp || ismp]
Ethernet II, Src: Intel_e9:06:7e (08:d2:3e:e9:06:7e), Dst: IPv4mcast_fb (01:00:5e:00:00:fb)
    Destination: IPv4mcast_fb (01:00:5e:00:00:fb)
        .... ..0. .... .... .... .... = LG bit: Globally unique address (factory default)
        .... ...1 .... .... .... .... = IG bit: Group address (multicast/broadcast)
    Source: Intel_e9:06:7e (08:d2:3e:e9:06:7e)
        .... ..0. .... .... .... .... = LG bit: Globally unique address (factory default)
        .... ...0 .... .... .... .... = IG bit: Individual address (unicast)
    Type: IPv4 (0x0800)
    [Stream index: 2]
Internet Protocol Version 4, Src: 192.168.1.10, Dst: 224.0.0.251
    0100 .... = Version: 4
    .... 0110 = Header Length: 24 bytes (6)
    Differentiated Services Field: 0x00 (DSCP: CS0, ECN: Not-ECT)
        0000 00.. = Differentiated Services Codepoint: Default (0)
        .... ..00 = Explicit Congestion Notification: Not ECN-Capable Transport (0)
    Total Length: 32
    Identification: 0x6c5a (27738)
    000. .... = Flags: 0x0
        0... .... = Reserved bit: Not set
        .0.. .... = Don't fragment: Not set
        ..0. .... = More fragments: Not set
    ...0 0000 0000 0000 = Fragment Offset: 0
    Time to Live: 1
    Protocol: IGMP (2)
    Header Checksum: 0x0000 [validation disabled]
    [Header checksum status: Unverified]
    Source Address: 192.168.1.10
    Destination Address: 224.0.0.251
    Options: (4 bytes), Router Alert
        IP Option - Router Alert (4 bytes): Router shall examine packet (0)
            Type: 148
                1... .... = Copy on fragmentation: Yes
                .00. .... = Class: Control (0)
                ...1 0100 = Number: Router Alert (20)
            Length: 4
            Router Alert: Router shall examine packet (0)
    [Stream index: 1]
Internet Group Management Protocol
    [IGMP Version: 2]
    Type: Membership Report (0x16)
    Max Resp Time: 0,0 sec (0x00)
    Checksum: 0x0904 [correct]
    [Checksum Status: Good]
    Multicast Address: 224.0.0.251

0000  01 00 5e 00 00 fb 08 d2 3e e9 06 7e 08 00 46 00   ..^.....>..~..F.
0010  00 20 6c 5a 00 00 01 02 00 00 c0 a8 01 0a e0 00   . lZ............
0020  00 fb 94 04 00 00 16 00 09 04 e0 00 00 fb         ..............

No.     Time           Source                Destination           Protocol Length Info
      5 1.000000       192.168.1.10          239.255.255.250       IGMPv2   46     Membership Report group 239.255.255.250

Frame 5: 46 bytes on wire (368 bits), 46 bytes captured (368 bits)
    Encapsulation type: Ethernet (1)
    Arrival Time: Aug 14, 2023 11:43:04.000000000 Paris, Madrid (heure d’été)
    UTC Arrival Time: Aug 14, 2023 09:43:04.000000000 UTC
    Epoch Arrival Time: 1692006184.000000000
    [Time shift for this packet: 0.000000000 seconds]
    [Time delta from previous captured frame: 1.000000000 seconds]
    [Time delta from previous displayed frame: 1.000000000 seconds]
    [Time since reference or first frame: 1.000000000 seconds]
    Frame Number: 5
    Frame Length: 46 bytes (368 bits)
    Capture Length: 46 bytes (368 bits)
    [Frame is marked: False]
    [Frame is ignored: False]
    [Protocols in frame: eth:ethertype:ip:igmp:igmp]
    [Coloring Rule Name: Routing]
    [Coloring Rule String: hsrp || eigrp || ospf || bgp || cdp || vrrp || carp || gvrp || igmp || ismp]
Ethernet II, Src: Intel_e9:06:7e (08:d2:3e:e9:06:7e), Dst: IPv4mcast_7f:ff:fa (01:00:5e:7f:ff:fa)
    Destination: IPv4mcast_7f:ff:fa (01:00:5e:7f:ff:fa)
        .... ..0. .... .... .... .... = LG bit: Globally unique address (factory default)
        .... ...1 .... .... .... .... = IG bit: Group address (multicast/broadcast)
    Source: Intel_e9:06:7e (08:d2:3e:e9:06:7e)
        .... ..0. .... .... .... .... = LG bit: Globally unique address (factory default)
        .... ...0 .... .... .... .... = IG bit: Individual address (unicast)
    Type: IPv4 (0x0800)
    [Stream index: 3]
Internet Protocol Version 4, Src: 192.168.1.10, Dst: 239.255.255.250
    0100 .... = Version: 4
    .... 0110 = Header Length: 24 bytes (6)
    Differentiated Services Field: 0x00 (DSCP: CS0, ECN: Not-ECT)
        0000 00.. = Differentiated Services Codepoint: Default (0)
        .... ..00 = Explicit Congestion Notification: Not ECN-Capable Transport (0)
    Total Length: 32
    Identification: 0x2068 (8296)
    000. .... = Flags: 0x0
        0... .... = Reserved bit: Not set
        .0.. .... = Don't fragment: Not set
        ..0. .... = More fragments: Not set
    ...0 0000 0000 0000 = Fragment Offset: 0
    Time to Live: 1
    Protocol: IGMP (2)
    Header Checksum: 0x0000 [validation disabled]
    [Header checksum status: Unverified]
    Source Address: 192.168.1.10
    Destination Address: 239.255.255.250
    Options: (4 bytes), Router Alert
        IP Option - Router Alert (4 bytes): Router shall examine packet (0)
            Type: 148
                1... .... = Copy on fragmentation: Yes
                .00. .... = Class: Control (0)
                ...1 0100 = Number: Router Alert (20)
            Length: 4
            Router Alert: Router shall examine packet (0)
    [Stream index: 2]
Internet Group Management Protocol
    [IGMP Version: 2]
    Type: Membership Report (0x16)
    Max Resp Time: 0,0 sec (0x00)
    Checksum: 0xfa04 [correct]
    [Checksum Status: Good]
    Multicast Address: 239.255.255.250

0000  01 00 5e 7f ff fa 08 d2 3e e9 06 7e 08 00 46 00   ..^.....>..~..F.
0010  00 20 20 68 00 00 01 02 00 00 c0 a8 01 0a ef ff   .  h............
0020  ff fa 94 04 00 00 16 00 fa 04 ef ff ff fa         ..............

No.     Time           Source                Destination           Protocol Length Info
      6 2.000000       192.168.1.10          224.0.0.252           IGMPv2   46     Membership Report group 224.0.0.252

Frame 6: 46 bytes on wire (368 bits), 46 bytes captured (368 bits)
    Encapsulation type: Ethernet (1)
    Arrival Time: Aug 14, 2023 11:43:05.000000000 Paris, Madrid (heure d’été)
    UTC Arrival Time: Aug 14, 2023 09:43:05.000000000 UTC
    Epoch Arrival Time: 1692006185.000000000
    [Time shift for this packet: 0.000000000 seconds]
    [Time delta from previous captured frame: 1.000000000 seconds]
    [Time delta from previous displayed frame: 1.000000000 seconds]
    [Time since reference or first frame: 2.000000000 seconds]
    Frame Number: 6
    Frame Length: 46 bytes (368 bits)
    Capture Length: 46 bytes (368 bits)
    [Frame is marked: False]
    [Frame is ignored: False]
    [Protocols in frame: eth:ethertype:ip:igmp:igmp]
    [Coloring Rule Name: Routing]
    [Coloring Rule String: hsrp || eigrp || ospf || bgp || cdp || vrrp || carp || gvrp || igmp || ismp]
Ethernet II, Src: Intel_e9:06:7e (08:d2:3e:e9:06:7e), Dst: IPv4mcast_fc (01:00:5e:00:00:fc)
    Destination: IPv4mcast_fc (01:00:5e:00:00:fc)
        .... ..0. .... .... .... .... = LG bit: Globally unique address (factory default)
        .... ...1 .... .... .... .... = IG bit: Group address (multicast/broadcast)
    Source: Intel_e9:06:7e (08:d2:3e:e9:06:7e)
        .... ..0. .... .... .... .... = LG bit: Globally unique address (factory default)
        .... ...0 .... .... .... .... = IG bit: Individual address (unicast)
    Type: IPv4 (0x0800)
    [Stream index: 4]
Internet Protocol Version 4, Src: 192.168.1.10, Dst: 224.0.0.252
    0100 .... = Version: 4
    .... 0110 = Header Length: 24 bytes (6)
    Differentiated Services Field: 0x00 (DSCP: CS0, ECN: Not-ECT)
        0000 00.. = Differentiated Services Codepoint: Default (0)
        .... ..00 = Explicit Congestion Notification: Not ECN-Capable Transport (0)
    Total Length: 32
    Identification: 0x8fea (36842)
    000. .... = Flags: 0x0
        0... .... = Reserved bit: Not set
        .0.. .... = Don't fragment: Not set
        ..0. .... = More fragments: Not set
    ...0 0000 0000 0000 = Fragment Offset: 0
    Time to Live: 1
    Protocol: IGMP (2)
    Header Checksum: 0x0000 [validation disabled]
    [Header checksum status: Unverified]
    Source Address: 192.168.1.10
    Destination Address: 224.0.0.252
    Options: (4 bytes), Router Alert
        IP Option - Router Alert (4 bytes): Router shall examine packet (0)
            Type: 148
                1... .... = Copy on fragmentation: Yes
                .00. .... = Class: Control (0)
                ...1 0100 = Number: Router Alert (20)
            Length: 4
            Router Alert: Router shall examine packet (0)
    [Stream index: 3]
Internet Group Management Protocol
    [IGMP Version: 2]
    Type: Membership Report (0x16)
    Max Resp Time: 0,0 sec (0x00)
    Checksum: 0x0903 [correct]
    [Checksum Status: Good]
    Multicast Address: 224.0.0.252

0000  01 00 5e 00 00 fc 08 d2 3e e9 06 7e 08 00 46 00   ..^.....>..~..F.
0010  00 20 8f ea 00 00 01 02 00 00 c0 a8 01 0a e0 00   . ..............
0020  00 fc 94 04 00 00 16 00 09 03 e0 00 00 fc         ..............

No.     Time           Source                Destination           Protocol Length Info
      7 2.000000       192.168.1.10          84.17.42.168          TCP      55     46073 → 443 [ACK] Seq=1 Ack=1 Win=511 Len=1

Frame 7: 55 bytes on wire (440 bits), 55 bytes captured (440 bits)
    Encapsulation type: Ethernet (1)
    Arrival Time: Aug 14, 2023 11:43:05.000000000 Paris, Madrid (heure d’été)
    UTC Arrival Time: Aug 14, 2023 09:43:05.000000000 UTC
    Epoch Arrival Time: 1692006185.000000000
    [Time shift for this packet: 0.000000000 seconds]
    [Time delta from previous captured frame: 0.000000000 seconds]
    [Time delta from previous displayed frame: 0.000000000 seconds]
    [Time since reference or first frame: 2.000000000 seconds]
    Frame Number: 7
    Frame Length: 55 bytes (440 bits)
    Capture Length: 55 bytes (440 bits)
    [Frame is marked: False]
    [Frame is ignored: False]
    [Protocols in frame: eth:ethertype:ip:tcp]
    [Coloring Rule Name: TCP]
    [Coloring Rule String: tcp]
Ethernet II, Src: Intel_e9:06:7e (08:d2:3e:e9:06:7e), Dst: IngramMicroS_4b:17:a0 (7c:c1:77:4b:17:a0)
    Destination: IngramMicroS_4b:17:a0 (7c:c1:77:4b:17:a0)
        .... ..0. .... .... .... .... = LG bit: Globally unique address (factory default)
        .... ...0 .... .... .... .... = IG bit: Individual address (unicast)
    Source: Intel_e9:06:7e (08:d2:3e:e9:06:7e)
        .... ..0. .... .... .... .... = LG bit: Globally unique address (factory default)
        .... ...0 .... .... .... .... = IG bit: Individual address (unicast)
    Type: IPv4 (0x0800)
    [Stream index: 0]
Internet Protocol Version 4, Src: 192.168.1.10, Dst: 84.17.42.168
    0100 .... = Version: 4
    .... 0101 = Header Length: 20 bytes (5)
    Differentiated Services Field: 0x00 (DSCP: CS0, ECN: Not-ECT)
        0000 00.. = Differentiated Services Codepoint: Default (0)
        .... ..00 = Explicit Congestion Notification: Not ECN-Capable Transport (0)
    Total Length: 41
    Identification: 0x798d (31117)
    010. .... = Flags: 0x2, Don't fragment
        0... .... = Reserved bit: Not set
        .1.. .... = Don't fragment: Set
        ..0. .... = More fragments: Not set
    ...0 0000 0000 0000 = Fragment Offset: 0
    Time to Live: 128
    Protocol: TCP (6)
    Header Checksum: 0x0000 [validation disabled]
    [Header checksum status: Unverified]
    Source Address: 192.168.1.10
    Destination Address: 84.17.42.168
    [Stream index: 4]
Transmission Control Protocol, Src Port: 46073, Dst Port: 443, Seq: 1, Ack: 1, Len: 1
    Source Port: 46073
    Destination Port: 443
    [Stream index: 0]
    [Stream Packet Number: 1]
    [Conversation completeness: Incomplete (12)]
        ..0. .... = RST: Absent
        ...0 .... = FIN: Absent
        .... 1... = Data: Present
        .... .1.. = ACK: Present
        .... ..0. = SYN-ACK: Absent
        .... ...0 = SYN: Absent
        [Completeness Flags: ··DA··]
    [TCP Segment Len: 1]
    Sequence Number: 1    (relative sequence number)
    Sequence Number (raw): 2513741423
    [Next Sequence Number: 2    (relative sequence number)]
    Acknowledgment Number: 1    (relative ack number)
    Acknowledgment number (raw): 539834574
    0101 .... = Header Length: 20 bytes (5)
    Flags: 0x010 (ACK)
        000. .... .... = Reserved: Not set
        ...0 .... .... = Accurate ECN: Not set
        .... 0... .... = Congestion Window Reduced: Not set
        .... .0.. .... = ECN-Echo: Not set
        .... ..0. .... = Urgent: Not set
        .... ...1 .... = Acknowledgment: Set
        .... .... 0... = Push: Not set
        .... .... .0.. = Reset: Not set
        .... .... ..0. = Syn: Not set
        .... .... ...0 = Fin: Not set
        [TCP Flags: ·······A····]
    Window: 511
    [Calculated window size: 511]
    [Window size scaling factor: -1 (unknown)]
    Checksum: 0x4087 [unverified]
    [Checksum Status: Unverified]
    Urgent Pointer: 0
    [Timestamps]
        [Time since first frame in this TCP stream: 0.000000000 seconds]
        [Time since previous frame in this TCP stream: 0.000000000 seconds]
    [SEQ/ACK analysis]
        [Bytes in flight: 1]
        [Bytes sent since last PSH flag: 1]
    TCP payload (1 byte)
    TCP segment data (1 byte)

0000  7c c1 77 4b 17 a0 08 d2 3e e9 06 7e 08 00 45 00   |.wK....>..~..E.
0010  00 29 79 8d 40 00 80 06 00 00 c0 a8 01 0a 54 11   .)y.@.........T.
0020  2a a8 b3 f9 01 bb 95 d4 a6 6f 20 2d 38 ce 50 10   *........o -8.P.
0030  01 ff 40 87 00 00 00                              ..@....

No.     Time           Source                Destination           Protocol Length Info
      8 2.000000       84.17.42.168          192.168.1.10          TCP      66     443 → 46073 [ACK] Seq=1 Ack=2 Win=501 Len=0 SLE=1 SRE=2

Frame 8: 66 bytes on wire (528 bits), 66 bytes captured (528 bits)
    Encapsulation type: Ethernet (1)
    Arrival Time: Aug 14, 2023 11:43:05.000000000 Paris, Madrid (heure d’été)
    UTC Arrival Time: Aug 14, 2023 09:43:05.000000000 UTC
    Epoch Arrival Time: 1692006185.000000000
    [Time shift for this packet: 0.000000000 seconds]
    [Time delta from previous captured frame: 0.000000000 seconds]
    [Time delta from previous displayed frame: 0.000000000 seconds]
    [Time since reference or first frame: 2.000000000 seconds]
    Frame Number: 8
    Frame Length: 66 bytes (528 bits)
    Capture Length: 66 bytes (528 bits)
    [Frame is marked: False]
    [Frame is ignored: False]
    [Protocols in frame: eth:ethertype:ip:tcp]
    [Coloring Rule Name: TCP]
    [Coloring Rule String: tcp]
Ethernet II, Src: IngramMicroS_4b:17:a0 (7c:c1:77:4b:17:a0), Dst: Intel_e9:06:7e (08:d2:3e:e9:06:7e)
    Destination: Intel_e9:06:7e (08:d2:3e:e9:06:7e)
        .... ..0. .... .... .... .... = LG bit: Globally unique address (factory default)
        .... ...0 .... .... .... .... = IG bit: Individual address (unicast)
    Source: IngramMicroS_4b:17:a0 (7c:c1:77:4b:17:a0)
        .... ..0. .... .... .... .... = LG bit: Globally unique address (factory default)
        .... ...0 .... .... .... .... = IG bit: Individual address (unicast)
    Type: IPv4 (0x0800)
    [Stream index: 0]
Internet Protocol Version 4, Src: 84.17.42.168, Dst: 192.168.1.10
    0100 .... = Version: 4
    .... 0101 = Header Length: 20 bytes (5)
    Differentiated Services Field: 0x00 (DSCP: CS0, ECN: Not-ECT)
        0000 00.. = Differentiated Services Codepoint: Default (0)
        .... ..00 = Explicit Congestion Notification: Not ECN-Capable Transport (0)
    Total Length: 52
    Identification: 0x0c9a (3226)
    010. .... = Flags: 0x2, Don't fragment
        0... .... = Reserved bit: Not set
        .1.. .... = Don't fragment: Set
        ..0. .... = More fragments: Not set
    ...0 0000 0000 0000 = Fragment Offset: 0
    Time to Live: 249
    Protocol: TCP (6)
    Header Checksum: 0x34be [validation disabled]
    [Header checksum status: Unverified]
    Source Address: 84.17.42.168
    Destination Address: 192.168.1.10
    [Stream index: 4]
Transmission Control Protocol, Src Port: 443, Dst Port: 46073, Seq: 1, Ack: 2, Len: 0
    Source Port: 443
    Destination Port: 46073
    [Stream index: 0]
    [Stream Packet Number: 2]
    [Conversation completeness: Incomplete (12)]
        ..0. .... = RST: Absent
        ...0 .... = FIN: Absent
        .... 1... = Data: Present
        .... .1.. = ACK: Present
        .... ..0. = SYN-ACK: Absent
        .... ...0 = SYN: Absent
        [Completeness Flags: ··DA··]
    [TCP Segment Len: 0]
    Sequence Number: 1    (relative sequence number)
    Sequence Number (raw): 539834574
    [Next Sequence Number: 1    (relative sequence number)]
    Acknowledgment Number: 2    (relative ack number)
    Acknowledgment number (raw): 2513741424
    1000 .... = Header Length: 32 bytes (8)
    Flags: 0x010 (ACK)
        000. .... .... = Reserved: Not set
        ...0 .... .... = Accurate ECN: Not set
        .... 0... .... = Congestion Window Reduced: Not set
        .... .0.. .... = ECN-Echo: Not set
        .... ..0. .... = Urgent: Not set
        .... ...1 .... = Acknowledgment: Set
        .... .... 0... = Push: Not set
        .... .... .0.. = Reset: Not set
        .... .... ..0. = Syn: Not set
        .... .... ...0 = Fin: Not set
        [TCP Flags: ·······A····]
    Window: 501
    [Calculated window size: 501]
    [Window size scaling factor: -1 (unknown)]
    Checksum: 0x73de [unverified]
    [Checksum Status: Unverified]
    Urgent Pointer: 0
    Options: (12 bytes), No-Operation (NOP), No-Operation (NOP), SACK
        TCP Option - No-Operation (NOP)
            Kind: No-Operation (1)
        TCP Option - No-Operation (NOP)
            Kind: No-Operation (1)
        TCP Option - SACK 1-2
            Kind: SACK (5)
            Length: 10
            left edge = 1 (relative)
            right edge = 2 (relative)
            [TCP SACK Count: 1]
            [D-SACK Left Edge = 1 (relative)]
            [D-SACK Right Edge = 2 (relative)]
            D-SACK Sequence
                [Expert Info (Warning/Sequence): D-SACK Sequence]
                    [D-SACK Sequence]
                    [Severity level: Warning]
                    [Group: Sequence]
    [Timestamps]
        [Time since first frame in this TCP stream: 0.000000000 seconds]
        [Time since previous frame in this TCP stream: 0.000000000 seconds]
    [SEQ/ACK analysis]
        [This is an ACK to the segment in frame: 7]

0000  08 d2 3e e9 06 7e 7c c1 77 4b 17 a0 08 00 45 00   ..>..~|.wK....E.
0010  00 34 0c 9a 40 00 f9 06 34 be 54 11 2a a8 c0 a8   .4..@...4.T.*...
0020  01 0a 01 bb b3 f9 20 2d 38 ce 95 d4 a6 70 80 10   ...... -8....p..
0030  01 f5 73 de 00 00 01 01 05 0a 95 d4 a6 6f 95 d4   ..s..........o..
0040  a6 70                                             .p

No.     Time           Source                Destination           Protocol Length Info
      9 3.000000       192.168.1.21          239.255.255.250       SSDP     369    NOTIFY * HTTP/1.1 

Frame 9: 369 bytes on wire (2952 bits), 369 bytes captured (2952 bits)
    Encapsulation type: Ethernet (1)
    Arrival Time: Aug 14, 2023 11:43:06.000000000 Paris, Madrid (heure d’été)
    UTC Arrival Time: Aug 14, 2023 09:43:06.000000000 UTC
    Epoch Arrival Time: 1692006186.000000000
    [Time shift for this packet: 0.000000000 seconds]
    [Time delta from previous captured frame: 1.000000000 seconds]
    [Time delta from previous displayed frame: 1.000000000 seconds]
    [Time since reference or first frame: 3.000000000 seconds]
    Frame Number: 9
    Frame Length: 369 bytes (2952 bits)
    Capture Length: 369 bytes (2952 bits)
    [Frame is marked: False]
    [Frame is ignored: False]
    [Protocols in frame: eth:ethertype:ip:udp:ssdp]
    [Coloring Rule Name: UDP]
    [Coloring Rule String: udp]
Ethernet II, Src: WesternDigit_da:4f:b5 (00:90:a9:da:4f:b5), Dst: Intel_e9:06:7e (08:d2:3e:e9:06:7e)
    Destination: Intel_e9:06:7e (08:d2:3e:e9:06:7e)
        .... ..0. .... .... .... .... = LG bit: Globally unique address (factory default)
        .... ...0 .... .... .... .... = IG bit: Individual address (unicast)
    Source: WesternDigit_da:4f:b5 (00:90:a9:da:4f:b5)
        .... ..0. .... .... .... .... = LG bit: Globally unique address (factory default)
        .... ...0 .... .... .... .... = IG bit: Individual address (unicast)
    Type: IPv4 (0x0800)
    [Stream index: 5]
Internet Protocol Version 4, Src: 192.168.1.21, Dst: 239.255.255.250
    0100 .... = Version: 4
    .... 0101 = Header Length: 20 bytes (5)
    Differentiated Services Field: 0x00 (DSCP: CS0, ECN: Not-ECT)
        0000 00.. = Differentiated Services Codepoint: Default (0)
        .... ..00 = Explicit Congestion Notification: Not ECN-Capable Transport (0)
    Total Length: 355
    Identification: 0xd8c3 (55491)
    000. .... = Flags: 0x0
        0... .... = Reserved bit: Not set
        .0.. .... = Don't fragment: Not set
        ..0. .... = More fragments: Not set
    ...0 0000 0000 0000 = Fragment Offset: 0
    Time to Live: 4
    Protocol: UDP (17)
    Header Checksum: 0x2b0f [validation disabled]
    [Header checksum status: Unverified]
    Source Address: 192.168.1.21
    Destination Address: 239.255.255.250
    [Stream index: 5]
User Datagram Protocol, Src Port: 1900, Dst Port: 1900
    Source Port: 1900
    Destination Port: 1900
    Length: 335
    Checksum: 0x6300 [unverified]
    [Checksum Status: Unverified]
    [Stream index: 0]
    [Stream Packet Number: 1]
    [Timestamps]
        [Time since first frame: 0.000000000 seconds]
        [Time since previous frame: 0.000000000 seconds]
    UDP payload (327 bytes)
Simple Service Discovery Protocol
    NOTIFY * HTTP/1.1\r\n
        Request Method: NOTIFY
        Request URI: *
        Request Version: HTTP/1.1
    HOST: 239.255.255.250:1900\r\n
    CACHE-CONTROL: max-age=1810\r\n
    LOCATION: http://192.168.1.21:9000/TMSDeviceDescription.xml\r\n
    NT: uuid:55076f6e-6b79-4d65-6436-0090a9da4fb5\r\n
    NTS: ssdp:alive\r\n
    SERVER: Linux/2.x.x, UPnP/1.0, pvConnect UPnP SDK/1.0, Twonky UPnP SDK/1.1\r\n
    USN: uuid:55076f6e-6b79-4d65-6436-0090a9da4fb5\r\n
    \r\n

0000  08 d2 3e e9 06 7e 00 90 a9 da 4f b5 08 00 45 00   ..>..~....O...E.
0010  01 63 d8 c3 00 00 04 11 2b 0f c0 a8 01 15 ef ff   .c......+.......
0020  ff fa 07 6c 07 6c 01 4f 63 00 4e 4f 54 49 46 59   ...l.l.Oc.NOTIFY
0030  20 2a 20 48 54 54 50 2f 31 2e 31 0d 0a 48 4f 53    * HTTP/1.1..HOS
0040  54 3a 20 32 33 39 2e 32 35 35 2e 32 35 35 2e 32   T: 239.255.255.2
0050  35 30 3a 31 39 30 30 0d 0a 43 41 43 48 45 2d 43   50:1900..CACHE-C
0060  4f 4e 54 52 4f 4c 3a 20 6d 61 78 2d 61 67 65 3d   ONTROL: max-age=
0070  31 38 31 30 0d 0a 4c 4f 43 41 54 49 4f 4e 3a 20   1810..LOCATION: 
0080  68 74 74 70 3a 2f 2f 31 39 32 2e 31 36 38 2e 31   http://192.168.1
0090  2e 32 31 3a 39 30 30 30 2f 54 4d 53 44 65 76 69   .21:9000/TMSDevi
00a0  63 65 44 65 73 63 72 69 70 74 69 6f 6e 2e 78 6d   ceDescription.xm
00b0  6c 0d 0a 4e 54 3a 20 75 75 69 64 3a 35 35 30 37   l..NT: uuid:5507
00c0  36 66 36 65 2d 36 62 37 39 2d 34 64 36 35 2d 36   6f6e-6b79-4d65-6
00d0  34 33 36 2d 30 30 39 30 61 39 64 61 34 66 62 35   436-0090a9da4fb5
00e0  0d 0a 4e 54 53 3a 20 73 73 64 70 3a 61 6c 69 76   ..NTS: ssdp:aliv
00f0  65 0d 0a 53 45 52 56 45 52 3a 20 4c 69 6e 75 78   e..SERVER: Linux
0100  2f 32 2e 78 2e 78 2c 20 55 50 6e 50 2f 31 2e 30   /2.x.x, UPnP/1.0
0110  2c 20 70 76 43 6f 6e 6e 65 63 74 20 55 50 6e 50   , pvConnect UPnP
0120  20 53 44 4b 2f 31 2e 30 2c 20 54 77 6f 6e 6b 79    SDK/1.0, Twonky
0130  20 55 50 6e 50 20 53 44 4b 2f 31 2e 31 0d 0a 55    UPnP SDK/1.1..U
0140  53 4e 3a 20 75 75 69 64 3a 35 35 30 37 36 66 36   SN: uuid:55076f6
0150  65 2d 36 62 37 39 2d 34 64 36 35 2d 36 34 33 36   e-6b79-4d65-6436
0160  2d 30 30 39 30 61 39 64 61 34 66 62 35 0d 0a 0d   -0090a9da4fb5...
0170  0a                                                .

No.     Time           Source                Destination           Protocol Length Info
     10 3.000000       192.168.1.21          239.255.255.250       SSDP     360    NOTIFY * HTTP/1.1 

Frame 10: 360 bytes on wire (2880 bits), 360 bytes captured (2880 bits)
    Encapsulation type: Ethernet (1)
    Arrival Time: Aug 14, 2023 11:43:06.000000000 Paris, Madrid (heure d’été)
    UTC Arrival Time: Aug 14, 2023 09:43:06.000000000 UTC
    Epoch Arrival Time: 1692006186.000000000
    [Time shift for this packet: 0.000000000 seconds]
    [Time delta from previous captured frame: 0.000000000 seconds]
    [Time delta from previous displayed frame: 0.000000000 seconds]
    [Time since reference or first frame: 3.000000000 seconds]
    Frame Number: 10
    Frame Length: 360 bytes (2880 bits)
    Capture Length: 360 bytes (2880 bits)
    [Frame is marked: False]
    [Frame is ignored: False]
    [Protocols in frame: eth:ethertype:ip:udp:ssdp]
    [Coloring Rule Name: UDP]
    [Coloring Rule String: udp]
Ethernet II, Src: WesternDigit_da:4f:b5 (00:90:a9:da:4f:b5), Dst: Intel_e9:06:7e (08:d2:3e:e9:06:7e)
    Destination: Intel_e9:06:7e (08:d2:3e:e9:06:7e)
        .... ..0. .... .... .... .... = LG bit: Globally unique address (factory default)
        .... ...0 .... .... .... .... = IG bit: Individual address (unicast)
    Source: WesternDigit_da:4f:b5 (00:90:a9:da:4f:b5)
        .... ..0. .... .... .... .... = LG bit: Globally unique address (factory default)
        .... ...0 .... .... .... .... = IG bit: Individual address (unicast)
    Type: IPv4 (0x0800)
    [Stream index: 5]
Internet Protocol Version 4, Src: 192.168.1.21, Dst: 239.255.255.250
    0100 .... = Version: 4
    .... 0101 = Header Length: 20 bytes (5)
    Differentiated Services Field: 0x00 (DSCP: CS0, ECN: Not-ECT)
        0000 00.. = Differentiated Services Codepoint: Default (0)
        .... ..00 = Explicit Congestion Notification: Not ECN-Capable Transport (0)
    Total Length: 346
    Identification: 0xd8c4 (55492)
    000. .... = Flags: 0x0
        0... .... = Reserved bit: Not set
        .0.. .... = Don't fragment: Not set
        ..0. .... = More fragments: Not set
    ...0 0000 0000 0000 = Fragment Offset: 0
    Time to Live: 4
    Protocol: UDP (17)
    Header Checksum: 0x2b17 [validation disabled]
    [Header checksum status: Unverified]
    Source Address: 192.168.1.21
    Destination Address: 239.255.255.250
    [Stream index: 5]
User Datagram Protocol, Src Port: 1900, Dst Port: 1900
    Source Port: 1900
    Destination Port: 1900
    Length: 326
    Checksum: 0x5d24 [unverified]
    [Checksum Status: Unverified]
    [Stream index: 0]
    [Stream Packet Number: 2]
    [Timestamps]
        [Time since first frame: 0.000000000 seconds]
        [Time since previous frame: 0.000000000 seconds]
    UDP payload (318 bytes)
Simple Service Discovery Protocol
    NOTIFY * HTTP/1.1\r\n
        Request Method: NOTIFY
        Request URI: *
        Request Version: HTTP/1.1
    HOST: 239.255.255.250:1900\r\n
    CACHE-CONTROL: max-age=1810\r\n
    LOCATION: http://192.168.1.21:9000/TMSDeviceDescription.xml\r\n
    NT: upnp:rootdevice\r\n
    NTS: ssdp:alive\r\n
    SERVER: Linux/2.x.x, UPnP/1.0, pvConnect UPnP SDK/1.0, Twonky UPnP SDK/1.1\r\n
    USN: uuid:55076f6e-6b79-4d65-6436-0090a9da4fb5::upnp:rootdevice\r\n
    \r\n

0000  08 d2 3e e9 06 7e 00 90 a9 da 4f b5 08 00 45 00   ..>..~....O...E.
0010  01 5a d8 c4 00 00 04 11 2b 17 c0 a8 01 15 ef ff   .Z......+.......
0020  ff fa 07 6c 07 6c 01 46 5d 24 4e 4f 54 49 46 59   ...l.l.F]$NOTIFY
0030  20 2a 20 48 54 54 50 2f 31 2e 31 0d 0a 48 4f 53    * HTTP/1.1..HOS
0040  54 3a 20 32 33 39 2e 32 35 35 2e 32 35 35 2e 32   T: 239.255.255.2
0050  35 30 3a 31 39 30 30 0d 0a 43 41 43 48 45 2d 43   50:1900..CACHE-C
0060  4f 4e 54 52 4f 4c 3a 20 6d 61 78 2d 61 67 65 3d   ONTROL: max-age=
0070  31 38 31 30 0d 0a 4c 4f 43 41 54 49 4f 4e 3a 20   1810..LOCATION: 
0080  68 74 74 70 3a 2f 2f 31 39 32 2e 31 36 38 2e 31   http://192.168.1
0090  2e 32 31 3a 39 30 30 30 2f 54 4d 53 44 65 76 69   .21:9000/TMSDevi
00a0  63 65 44 65 73 63 72 69 70 74 69 6f 6e 2e 78 6d   ceDescription.xm
00b0  6c 0d 0a 4e 54 3a 20 75 70 6e 70 3a 72 6f 6f 74   l..NT: upnp:root
00c0  64 65 76 69 63 65 0d 0a 4e 54 53 3a 20 73 73 64   device..NTS: ssd
00d0  70 3a 61 6c 69 76 65 0d 0a 53 45 52 56 45 52 3a   p:alive..SERVER:
00e0  20 4c 69 6e 75 78 2f 32 2e 78 2e 78 2c 20 55 50    Linux/2.x.x, UP
00f0  6e 50 2f 31 2e 30 2c 20 70 76 43 6f 6e 6e 65 63   nP/1.0, pvConnec
0100  74 20 55 50 6e 50 20 53 44 4b 2f 31 2e 30 2c 20   t UPnP SDK/1.0, 
0110  54 77 6f 6e 6b 79 20 55 50 6e 50 20 53 44 4b 2f   Twonky UPnP SDK/
0120  31 2e 31 0d 0a 55 53 4e 3a 20 75 75 69 64 3a 35   1.1..USN: uuid:5
0130  35 30 37 36 66 36 65 2d 36 62 37 39 2d 34 64 36   5076f6e-6b79-4d6
0140  35 2d 36 34 33 36 2d 30 30 39 30 61 39 64 61 34   5-6436-0090a9da4
0150  66 62 35 3a 3a 75 70 6e 70 3a 72 6f 6f 74 64 65   fb5::upnp:rootde
0160  76 69 63 65 0d 0a 0d 0a                           vice....

No.     Time           Source                Destination           Protocol Length Info
     11 3.000000       192.168.1.21          239.255.255.250       SSDP     412    NOTIFY * HTTP/1.1 

Frame 11: 412 bytes on wire (3296 bits), 412 bytes captured (3296 bits)
    Encapsulation type: Ethernet (1)
    Arrival Time: Aug 14, 2023 11:43:06.000000000 Paris, Madrid (heure d’été)
    UTC Arrival Time: Aug 14, 2023 09:43:06.000000000 UTC
    Epoch Arrival Time: 1692006186.000000000
    [Time shift for this packet: 0.000000000 seconds]
    [Time delta from previous captured frame: 0.000000000 seconds]
    [Time delta from previous displayed frame: 0.000000000 seconds]
    [Time since reference or first frame: 3.000000000 seconds]
    Frame Number: 11
    Frame Length: 412 bytes (3296 bits)
    Capture Length: 412 bytes (3296 bits)
    [Frame is marked: False]
    [Frame is ignored: False]
    [Protocols in frame: eth:ethertype:ip:udp:ssdp]
    [Coloring Rule Name: UDP]
    [Coloring Rule String: udp]
Ethernet II, Src: WesternDigit_da:4f:b5 (00:90:a9:da:4f:b5), Dst: Intel_e9:06:7e (08:d2:3e:e9:06:7e)
    Destination: Intel_e9:06:7e (08:d2:3e:e9:06:7e)
        .... ..0. .... .... .... .... = LG bit: Globally unique address (factory default)
        .... ...0 .... .... .... .... = IG bit: Individual address (unicast)
    Source: WesternDigit_da:4f:b5 (00:90:a9:da:4f:b5)
        .... ..0. .... .... .... .... = LG bit: Globally unique address (factory default)
        .... ...0 .... .... .... .... = IG bit: Individual address (unicast)
    Type: IPv4 (0x0800)
    [Stream index: 5]
Internet Protocol Version 4, Src: 192.168.1.21, Dst: 239.255.255.250
    0100 .... = Version: 4
    .... 0101 = Header Length: 20 bytes (5)
    Differentiated Services Field: 0x00 (DSCP: CS0, ECN: Not-ECT)
        0000 00.. = Differentiated Services Codepoint: Default (0)
        .... ..00 = Explicit Congestion Notification: Not ECN-Capable Transport (0)
    Total Length: 398
    Identification: 0xd8c5 (55493)
    000. .... = Flags: 0x0
        0... .... = Reserved bit: Not set
        .0.. .... = Don't fragment: Not set
        ..0. .... = More fragments: Not set
    ...0 0000 0000 0000 = Fragment Offset: 0
    Time to Live: 4
    Protocol: UDP (17)
    Header Checksum: 0x2ae2 [validation disabled]
    [Header checksum status: Unverified]
    Source Address: 192.168.1.21
    Destination Address: 239.255.255.250
    [Stream index: 5]
User Datagram Protocol, Src Port: 1900, Dst Port: 1900
    Source Port: 1900
    Destination Port: 1900
    Length: 378
    Checksum: 0x8cdf [unverified]
    [Checksum Status: Unverified]
    [Stream index: 0]
    [Stream Packet Number: 3]
    [Timestamps]
        [Time since first frame: 0.000000000 seconds]
        [Time since previous frame: 0.000000000 seconds]
    UDP payload (370 bytes)
Simple Service Discovery Protocol
    NOTIFY * HTTP/1.1\r\n
        Request Method: NOTIFY
        Request URI: *
        Request Version: HTTP/1.1
    HOST: 239.255.255.250:1900\r\n
    CACHE-CONTROL: max-age=1810\r\n
    LOCATION: http://192.168.1.21:9000/TMSDeviceDescription.xml\r\n
    NT: urn:schemas-upnp-org:device:MediaServer:1\r\n
    NTS: ssdp:alive\r\n
    SERVER: Linux/2.x.x, UPnP/1.0, pvConnect UPnP SDK/1.0, Twonky UPnP SDK/1.1\r\n
    USN: uuid:55076f6e-6b79-4d65-6436-0090a9da4fb5::urn:schemas-upnp-org:device:MediaServer:1\r\n
    \r\n

0000  08 d2 3e e9 06 7e 00 90 a9 da 4f b5 08 00 45 00   ..>..~....O...E.
0010  01 8e d8 c5 00 00 04 11 2a e2 c0 a8 01 15 ef ff   ........*.......
0020  ff fa 07 6c 07 6c 01 7a 8c df 4e 4f 54 49 46 59   ...l.l.z..NOTIFY
0030  20 2a 20 48 54 54 50 2f 31 2e 31 0d 0a 48 4f 53    * HTTP/1.1..HOS
0040  54 3a 20 32 33 39 2e 32 35 35 2e 32 35 35 2e 32   T: 239.255.255.2
0050  35 30 3a 31 39 30 30 0d 0a 43 41 43 48 45 2d 43   50:1900..CACHE-C
0060  4f 4e 54 52 4f 4c 3a 20 6d 61 78 2d 61 67 65 3d   ONTROL: max-age=
0070  31 38 31 30 0d 0a 4c 4f 43 41 54 49 4f 4e 3a 20   1810..LOCATION: 
0080  68 74 74 70 3a 2f 2f 31 39 32 2e 31 36 38 2e 31   http://192.168.1
0090  2e 32 31 3a 39 30 30 30 2f 54 4d 53 44 65 76 69   .21:9000/TMSDevi
00a0  63 65 44 65 73 63 72 69 70 74 69 6f 6e 2e 78 6d   ceDescription.xm
00b0  6c 0d 0a 4e 54 3a 20 75 72 6e 3a 73 63 68 65 6d   l..NT: urn:schem
00c0  61 73 2d 75 70 6e 70 2d 6f 72 67 3a 64 65 76 69   as-upnp-org:devi
00d0  63 65 3a 4d 65 64 69 61 53 65 72 76 65 72 3a 31   ce:MediaServer:1
00e0  0d 0a 4e 54 53 3a 20 73 73 64 70 3a 61 6c 69 76   ..NTS: ssdp:aliv
00f0  65 0d 0a 53 45 52 56 45 52 3a 20 4c 69 6e 75 78   e..SERVER: Linux
0100  2f 32 2e 78 2e 78 2c 20 55 50 6e 50 2f 31 2e 30   /2.x.x, UPnP/1.0
0110  2c 20 70 76 43 6f 6e 6e 65 63 74 20 55 50 6e 50   , pvConnect UPnP
0120  20 53 44 4b 2f 31 2e 30 2c 20 54 77 6f 6e 6b 79    SDK/1.0, Twonky
0130  20 55 50 6e 50 20 53 44 4b 2f 31 2e 31 0d 0a 55    UPnP SDK/1.1..U
0140  53 4e 3a 20 75 75 69 64 3a 35 35 30 37 36 66 36   SN: uuid:55076f6
0150  65 2d 36 62 37 39 2d 34 64 36 35 2d 36 34 33 36   e-6b79-4d65-6436
0160  2d 30 30 39 30 61 39 64 61 34 66 62 35 3a 3a 75   -0090a9da4fb5::u
0170  72 6e 3a 73 63 68 65 6d 61 73 2d 75 70 6e 70 2d   rn:schemas-upnp-
0180  6f 72 67 3a 64 65 76 69 63 65 3a 4d 65 64 69 61   org:device:Media
0190  53 65 72 76 65 72 3a 31 0d 0a 0d 0a               Server:1....

No.     Time           Source                Destination           Protocol Length Info
     12 3.000000       192.168.1.21          239.255.255.250       SSDP     424    NOTIFY * HTTP/1.1 

Frame 12: 424 bytes on wire (3392 bits), 424 bytes captured (3392 bits)
    Encapsulation type: Ethernet (1)
    Arrival Time: Aug 14, 2023 11:43:06.000000000 Paris, Madrid (heure d’été)
    UTC Arrival Time: Aug 14, 2023 09:43:06.000000000 UTC
    Epoch Arrival Time: 1692006186.000000000
    [Time shift for this packet: 0.000000000 seconds]
    [Time delta from previous captured frame: 0.000000000 seconds]
    [Time delta from previous displayed frame: 0.000000000 seconds]
    [Time since reference or first frame: 3.000000000 seconds]
    Frame Number: 12
    Frame Length: 424 bytes (3392 bits)
    Capture Length: 424 bytes (3392 bits)
    [Frame is marked: False]
    [Frame is ignored: False]
    [Protocols in frame: eth:ethertype:ip:udp:ssdp]
    [Coloring Rule Name: UDP]
    [Coloring Rule String: udp]
Ethernet II, Src: WesternDigit_da:4f:b5 (00:90:a9:da:4f:b5), Dst: Intel_e9:06:7e (08:d2:3e:e9:06:7e)
    Destination: Intel_e9:06:7e (08:d2:3e:e9:06:7e)
        .... ..0. .... .... .... .... = LG bit: Globally unique address (factory default)
        .... ...0 .... .... .... .... = IG bit: Individual address (unicast)
    Source: WesternDigit_da:4f:b5 (00:90:a9:da:4f:b5)
        .... ..0. .... .... .... .... = LG bit: Globally unique address (factory default)
        .... ...0 .... .... .... .... = IG bit: Individual address (unicast)
    Type: IPv4 (0x0800)
    [Stream index: 5]
Internet Protocol Version 4, Src: 192.168.1.21, Dst: 239.255.255.250
    0100 .... = Version: 4
    .... 0101 = Header Length: 20 bytes (5)
    Differentiated Services Field: 0x00 (DSCP: CS0, ECN: Not-ECT)
        0000 00.. = Differentiated Services Codepoint: Default (0)
        .... ..00 = Explicit Congestion Notification: Not ECN-Capable Transport (0)
    Total Length: 410
    Identification: 0xd8c6 (55494)
    000. .... = Flags: 0x0
        0... .... = Reserved bit: Not set
        .0.. .... = Don't fragment: Not set
        ..0. .... = More fragments: Not set
    ...0 0000 0000 0000 = Fragment Offset: 0
    Time to Live: 4
    Protocol: UDP (17)
    Header Checksum: 0x2ad5 [validation disabled]
    [Header checksum status: Unverified]
    Source Address: 192.168.1.21
    Destination Address: 239.255.255.250
    [Stream index: 5]
User Datagram Protocol, Src Port: 1900, Dst Port: 1900
    Source Port: 1900
    Destination Port: 1900
    Length: 390
    Checksum: 0x8654 [unverified]
    [Checksum Status: Unverified]
    [Stream index: 0]
    [Stream Packet Number: 4]
    [Timestamps]
        [Time since first frame: 0.000000000 seconds]
        [Time since previous frame: 0.000000000 seconds]
    UDP payload (382 bytes)
Simple Service Discovery Protocol
    NOTIFY * HTTP/1.1\r\n
        Request Method: NOTIFY
        Request URI: *
        Request Version: HTTP/1.1
    HOST: 239.255.255.250:1900\r\n
    CACHE-CONTROL: max-age=1810\r\n
    LOCATION: http://192.168.1.21:9000/TMSDeviceDescription.xml\r\n
    NT: urn:schemas-upnp-org:service:ContentDirectory:1\r\n
    NTS: ssdp:alive\r\n
    SERVER: Linux/2.x.x, UPnP/1.0, pvConnect UPnP SDK/1.0, Twonky UPnP SDK/1.1\r\n
    USN: uuid:55076f6e-6b79-4d65-6436-0090a9da4fb5::urn:schemas-upnp-org:service:ContentDirectory:1\r\n
    \r\n

0000  08 d2 3e e9 06 7e 00 90 a9 da 4f b5 08 00 45 00   ..>..~....O...E.
0010  01 9a d8 c6 00 00 04 11 2a d5 c0 a8 01 15 ef ff   ........*.......
0020  ff fa 07 6c 07 6c 01 86 86 54 4e 4f 54 49 46 59   ...l.l...TNOTIFY
0030  20 2a 20 48 54 54 50 2f 31 2e 31 0d 0a 48 4f 53    * HTTP/1.1..HOS
0040  54 3a 20 32 33 39 2e 32 35 35 2e 32 35 35 2e 32   T: 239.255.255.2
0050  35 30 3a 31 39 30 30 0d 0a 43 41 43 48 45 2d 43   50:1900..CACHE-C
0060  4f 4e 54 52 4f 4c 3a 20 6d 61 78 2d 61 67 65 3d   ONTROL: max-age=
0070  31 38 31 30 0d 0a 4c 4f 43 41 54 49 4f 4e 3a 20   1810..LOCATION: 
0080  68 74 74 70 3a 2f 2f 31 39 32 2e 31 36 38 2e 31   http://192.168.1
0090  2e 32 31 3a 39 30 30 30 2f 54 4d 53 44 65 76 69   .21:9000/TMSDevi
00a0  63 65 44 65 73 63 72 69 70 74 69 6f 6e 2e 78 6d   ceDescription.xm
00b0  6c 0d 0a 4e 54 3a 20 75 72 6e 3a 73 63 68 65 6d   l..NT: urn:schem
00c0  61 73 2d 75 70 6e 70 2d 6f 72 67 3a 73 65 72 76   as-upnp-org:serv
00d0  69 63 65 3a 43 6f 6e 74 65 6e 74 44 69 72 65 63   ice:ContentDirec
00e0  74 6f 72 79 3a 31 0d 0a 4e 54 53 3a 20 73 73 64   tory:1..NTS: ssd
00f0  70 3a 61 6c 69 76 65 0d 0a 53 45 52 56 45 52 3a   p:alive..SERVER:
0100  20 4c 69 6e 75 78 2f 32 2e 78 2e 78 2c 20 55 50    Linux/2.x.x, UP
0110  6e 50 2f 31 2e 30 2c 20 70 76 43 6f 6e 6e 65 63   nP/1.0, pvConnec
0120  74 20 55 50 6e 50 20 53 44 4b 2f 31 2e 30 2c 20   t UPnP SDK/1.0, 
0130  54 77 6f 6e 6b 79 20 55 50 6e 50 20 53 44 4b 2f   Twonky UPnP SDK/
0140  31 2e 31 0d 0a 55 53 4e 3a 20 75 75 69 64 3a 35   1.1..USN: uuid:5
0150  35 30 37 36 66 36 65 2d 36 62 37 39 2d 34 64 36   5076f6e-6b79-4d6
0160  35 2d 36 34 33 36 2d 30 30 39 30 61 39 64 61 34   5-6436-0090a9da4
0170  66 62 35 3a 3a 75 72 6e 3a 73 63 68 65 6d 61 73   fb5::urn:schemas
0180  2d 75 70 6e 70 2d 6f 72 67 3a 73 65 72 76 69 63   -upnp-org:servic
0190  65 3a 43 6f 6e 74 65 6e 74 44 69 72 65 63 74 6f   e:ContentDirecto
01a0  72 79 3a 31 0d 0a 0d 0a                           ry:1....

No.     Time           Source                Destination           Protocol Length Info
     13 3.000000       192.168.1.21          239.255.255.250       SSDP     426    NOTIFY * HTTP/1.1 

Frame 13: 426 bytes on wire (3408 bits), 426 bytes captured (3408 bits)
    Encapsulation type: Ethernet (1)
    Arrival Time: Aug 14, 2023 11:43:06.000000000 Paris, Madrid (heure d’été)
    UTC Arrival Time: Aug 14, 2023 09:43:06.000000000 UTC
    Epoch Arrival Time: 1692006186.000000000
    [Time shift for this packet: 0.000000000 seconds]
    [Time delta from previous captured frame: 0.000000000 seconds]
    [Time delta from previous displayed frame: 0.000000000 seconds]
    [Time since reference or first frame: 3.000000000 seconds]
    Frame Number: 13
    Frame Length: 426 bytes (3408 bits)
    Capture Length: 426 bytes (3408 bits)
    [Frame is marked: False]
    [Frame is ignored: False]
    [Protocols in frame: eth:ethertype:ip:udp:ssdp]
    [Coloring Rule Name: UDP]
    [Coloring Rule String: udp]
Ethernet II, Src: WesternDigit_da:4f:b5 (00:90:a9:da:4f:b5), Dst: Intel_e9:06:7e (08:d2:3e:e9:06:7e)
    Destination: Intel_e9:06:7e (08:d2:3e:e9:06:7e)
        .... ..0. .... .... .... .... = LG bit: Globally unique address (factory default)
        .... ...0 .... .... .... .... = IG bit: Individual address (unicast)
    Source: WesternDigit_da:4f:b5 (00:90:a9:da:4f:b5)
        .... ..0. .... .... .... .... = LG bit: Globally unique address (factory default)
        .... ...0 .... .... .... .... = IG bit: Individual address (unicast)
    Type: IPv4 (0x0800)
    [Stream index: 5]
Internet Protocol Version 4, Src: 192.168.1.21, Dst: 239.255.255.250
    0100 .... = Version: 4
    .... 0101 = Header Length: 20 bytes (5)
    Differentiated Services Field: 0x00 (DSCP: CS0, ECN: Not-ECT)
        0000 00.. = Differentiated Services Codepoint: Default (0)
        .... ..00 = Explicit Congestion Notification: Not ECN-Capable Transport (0)
    Total Length: 412
    Identification: 0xd8c7 (55495)
    000. .... = Flags: 0x0
        0... .... = Reserved bit: Not set
        .0.. .... = Don't fragment: Not set
        ..0. .... = More fragments: Not set
    ...0 0000 0000 0000 = Fragment Offset: 0
    Time to Live: 4
    Protocol: UDP (17)
    Header Checksum: 0x2ad2 [validation disabled]
    [Header checksum status: Unverified]
    Source Address: 192.168.1.21
    Destination Address: 239.255.255.250
    [Stream index: 5]
User Datagram Protocol, Src Port: 1900, Dst Port: 1900
    Source Port: 1900
    Destination Port: 1900
    Length: 392
    Checksum: 0xbea1 [unverified]
    [Checksum Status: Unverified]
    [Stream index: 0]
    [Stream Packet Number: 5]
    [Timestamps]
        [Time since first frame: 0.000000000 seconds]
        [Time since previous frame: 0.000000000 seconds]
    UDP payload (384 bytes)
Simple Service Discovery Protocol
    NOTIFY * HTTP/1.1\r\n
        Request Method: NOTIFY
        Request URI: *
        Request Version: HTTP/1.1
    HOST: 239.255.255.250:1900\r\n
    CACHE-CONTROL: max-age=1810\r\n
    LOCATION: http://192.168.1.21:9000/TMSDeviceDescription.xml\r\n
    NT: urn:schemas-upnp-org:service:ConnectionManager:1\r\n
    NTS: ssdp:alive\r\n
    SERVER: Linux/2.x.x, UPnP/1.0, pvConnect UPnP SDK/1.0, Twonky UPnP SDK/1.1\r\n
    USN: uuid:55076f6e-6b79-4d65-6436-0090a9da4fb5::urn:schemas-upnp-org:service:ConnectionManager:1\r\n
    \r\n

0000  08 d2 3e e9 06 7e 00 90 a9 da 4f b5 08 00 45 00   ..>..~....O...E.
0010  01 9c d8 c7 00 00 04 11 2a d2 c0 a8 01 15 ef ff   ........*.......
0020  ff fa 07 6c 07 6c 01 88 be a1 4e 4f 54 49 46 59   ...l.l....NOTIFY
0030  20 2a 20 48 54 54 50 2f 31 2e 31 0d 0a 48 4f 53    * HTTP/1.1..HOS
0040  54 3a 20 32 33 39 2e 32 35 35 2e 32 35 35 2e 32   T: 239.255.255.2
0050  35 30 3a 31 39 30 30 0d 0a 43 41 43 48 45 2d 43   50:1900..CACHE-C
0060  4f 4e 54 52 4f 4c 3a 20 6d 61 78 2d 61 67 65 3d   ONTROL: max-age=
0070  31 38 31 30 0d 0a 4c 4f 43 41 54 49 4f 4e 3a 20   1810..LOCATION: 
0080  68 74 74 70 3a 2f 2f 31 39 32 2e 31 36 38 2e 31   http://192.168.1
0090  2e 32 31 3a 39 30 30 30 2f 54 4d 53 44 65 76 69   .21:9000/TMSDevi
00a0  63 65 44 65 73 63 72 69 70 74 69 6f 6e 2e 78 6d   ceDescription.xm
00b0  6c 0d 0a 4e 54 3a 20 75 72 6e 3a 73 63 68 65 6d   l..NT: urn:schem
00c0  61 73 2d 75 70 6e 70 2d 6f 72 67 3a 73 65 72 76   as-upnp-org:serv
00d0  69 63 65 3a 43 6f 6e 6e 65 63 74 69 6f 6e 4d 61   ice:ConnectionMa
00e0  6e 61 67 65 72 3a 31 0d 0a 4e 54 53 3a 20 73 73   nager:1..NTS: ss
00f0  64 70 3a 61 6c 69 76 65 0d 0a 53 45 52 56 45 52   dp:alive..SERVER
0100  3a 20 4c 69 6e 75 78 2f 32 2e 78 2e 78 2c 20 55   : Linux/2.x.x, U
0110  50 6e 50 2f 31 2e 30 2c 20 70 76 43 6f 6e 6e 65   PnP/1.0, pvConne
0120  63 74 20 55 50 6e 50 20 53 44 4b 2f 31 2e 30 2c   ct UPnP SDK/1.0,
0130  20 54 77 6f 6e 6b 79 20 55 50 6e 50 20 53 44 4b    Twonky UPnP SDK
0140  2f 31 2e 31 0d 0a 55 53 4e 3a 20 75 75 69 64 3a   /1.1..USN: uuid:
0150  35 35 30 37 36 66 36 65 2d 36 62 37 39 2d 34 64   55076f6e-6b79-4d
0160  36 35 2d 36 34 33 36 2d 30 30 39 30 61 39 64 61   65-6436-0090a9da
0170  34 66 62 35 3a 3a 75 72 6e 3a 73 63 68 65 6d 61   4fb5::urn:schema
0180  73 2d 75 70 6e 70 2d 6f 72 67 3a 73 65 72 76 69   s-upnp-org:servi
0190  63 65 3a 43 6f 6e 6e 65 63 74 69 6f 6e 4d 61 6e   ce:ConnectionMan
01a0  61 67 65 72 3a 31 0d 0a 0d 0a                     ager:1....

No.     Time           Source                Destination           Protocol Length Info
     14 3.000000       192.168.1.21          239.255.255.250       SSDP     440    NOTIFY * HTTP/1.1 

Frame 14: 440 bytes on wire (3520 bits), 440 bytes captured (3520 bits)
    Encapsulation type: Ethernet (1)
    Arrival Time: Aug 14, 2023 11:43:06.000000000 Paris, Madrid (heure d’été)
    UTC Arrival Time: Aug 14, 2023 09:43:06.000000000 UTC
    Epoch Arrival Time: 1692006186.000000000
    [Time shift for this packet: 0.000000000 seconds]
    [Time delta from previous captured frame: 0.000000000 seconds]
    [Time delta from previous displayed frame: 0.000000000 seconds]
    [Time since reference or first frame: 3.000000000 seconds]
    Frame Number: 14
    Frame Length: 440 bytes (3520 bits)
    Capture Length: 440 bytes (3520 bits)
    [Frame is marked: False]
    [Frame is ignored: False]
    [Protocols in frame: eth:ethertype:ip:udp:ssdp]
    [Coloring Rule Name: UDP]
    [Coloring Rule String: udp]
Ethernet II, Src: WesternDigit_da:4f:b5 (00:90:a9:da:4f:b5), Dst: Intel_e9:06:7e (08:d2:3e:e9:06:7e)
    Destination: Intel_e9:06:7e (08:d2:3e:e9:06:7e)
        .... ..0. .... .... .... .... = LG bit: Globally unique address (factory default)
        .... ...0 .... .... .... .... = IG bit: Individual address (unicast)
    Source: WesternDigit_da:4f:b5 (00:90:a9:da:4f:b5)
        .... ..0. .... .... .... .... = LG bit: Globally unique address (factory default)
        .... ...0 .... .... .... .... = IG bit: Individual address (unicast)
    Type: IPv4 (0x0800)
    [Stream index: 5]
Internet Protocol Version 4, Src: 192.168.1.21, Dst: 239.255.255.250
    0100 .... = Version: 4
    .... 0101 = Header Length: 20 bytes (5)
    Differentiated Services Field: 0x00 (DSCP: CS0, ECN: Not-ECT)
        0000 00.. = Differentiated Services Codepoint: Default (0)
        .... ..00 = Explicit Congestion Notification: Not ECN-Capable Transport (0)
    Total Length: 426
    Identification: 0xd8c8 (55496)
    000. .... = Flags: 0x0
        0... .... = Reserved bit: Not set
        .0.. .... = Don't fragment: Not set
        ..0. .... = More fragments: Not set
    ...0 0000 0000 0000 = Fragment Offset: 0
    Time to Live: 4
    Protocol: UDP (17)
    Header Checksum: 0x2ac3 [validation disabled]
    [Header checksum status: Unverified]
    Source Address: 192.168.1.21
    Destination Address: 239.255.255.250
    [Stream index: 5]
User Datagram Protocol, Src Port: 1900, Dst Port: 1900
    Source Port: 1900
    Destination Port: 1900
    Length: 406
    Checksum: 0x44a0 [unverified]
    [Checksum Status: Unverified]
    [Stream index: 0]
    [Stream Packet Number: 6]
    [Timestamps]
        [Time since first frame: 0.000000000 seconds]
        [Time since previous frame: 0.000000000 seconds]
    UDP payload (398 bytes)
Simple Service Discovery Protocol
    NOTIFY * HTTP/1.1\r\n
        Request Method: NOTIFY
        Request URI: *
        Request Version: HTTP/1.1
    HOST: 239.255.255.250:1900\r\n
    CACHE-CONTROL: max-age=1810\r\n
    LOCATION: http://192.168.1.21:9000/TMSDeviceDescription.xml\r\n
    NT: urn:microsoft.com:service:X_MS_MediaReceiverRegistrar:1\r\n
    NTS: ssdp:alive\r\n
    SERVER: Linux/2.x.x, UPnP/1.0, pvConnect UPnP SDK/1.0, Twonky UPnP SDK/1.1\r\n
    USN: uuid:55076f6e-6b79-4d65-6436-0090a9da4fb5::urn:microsoft.com:service:X_MS_MediaReceiverRegistrar:1\r\n
    \r\n

0000  08 d2 3e e9 06 7e 00 90 a9 da 4f b5 08 00 45 00   ..>..~....O...E.
0010  01 aa d8 c8 00 00 04 11 2a c3 c0 a8 01 15 ef ff   ........*.......
0020  ff fa 07 6c 07 6c 01 96 44 a0 4e 4f 54 49 46 59   ...l.l..D.NOTIFY
0030  20 2a 20 48 54 54 50 2f 31 2e 31 0d 0a 48 4f 53    * HTTP/1.1..HOS
0040  54 3a 20 32 33 39 2e 32 35 35 2e 32 35 35 2e 32   T: 239.255.255.2
0050  35 30 3a 31 39 30 30 0d 0a 43 41 43 48 45 2d 43   50:1900..CACHE-C
0060  4f 4e 54 52 4f 4c 3a 20 6d 61 78 2d 61 67 65 3d   ONTROL: max-age=
0070  31 38 31 30 0d 0a 4c 4f 43 41 54 49 4f 4e 3a 20   1810..LOCATION: 
0080  68 74 74 70 3a 2f 2f 31 39 32 2e 31 36 38 2e 31   http://192.168.1
0090  2e 32 31 3a 39 30 30 30 2f 54 4d 53 44 65 76 69   .21:9000/TMSDevi
00a0  63 65 44 65 73 63 72 69 70 74 69 6f 6e 2e 78 6d   ceDescription.xm
00b0  6c 0d 0a 4e 54 3a 20 75 72 6e 3a 6d 69 63 72 6f   l..NT: urn:micro
00c0  73 6f 66 74 2e 63 6f 6d 3a 73 65 72 76 69 63 65   soft.com:service
00d0  3a 58 5f 4d 53 5f 4d 65 64 69 61 52 65 63 65 69   :X_MS_MediaRecei
00e0  76 65 72 52 65 67 69 73 74 72 61 72 3a 31 0d 0a   verRegistrar:1..
00f0  4e 54 53 3a 20 73 73 64 70 3a 61 6c 69 76 65 0d   NTS: ssdp:alive.
0100  0a 53 45 52 56 45 52 3a 20 4c 69 6e 75 78 2f 32   .SERVER: Linux/2
0110  2e 78 2e 78 2c 20 55 50 6e 50 2f 31 2e 30 2c 20   .x.x, UPnP/1.0, 
0120  70 76 43 6f 6e 6e 65 63 74 20 55 50 6e 50 20 53   pvConnect UPnP S
0130  44 4b 2f 31 2e 30 2c 20 54 77 6f 6e 6b 79 20 55   DK/1.0, Twonky U
0140  50 6e 50 20 53 44 4b 2f 31 2e 31 0d 0a 55 53 4e   PnP SDK/1.1..USN
0150  3a 20 75 75 69 64 3a 35 35 30 37 36 66 36 65 2d   : uuid:55076f6e-
0160  36 62 37 39 2d 34 64 36 35 2d 36 34 33 36 2d 30   6b79-4d65-6436-0
0170  30 39 30 61 39 64 61 34 66 62 35 3a 3a 75 72 6e   090a9da4fb5::urn
0180  3a 6d 69 63 72 6f 73 6f 66 74 2e 63 6f 6d 3a 73   :microsoft.com:s
0190  65 72 76 69 63 65 3a 58 5f 4d 53 5f 4d 65 64 69   ervice:X_MS_Medi
01a0  61 52 65 63 65 69 76 65 72 52 65 67 69 73 74 72   aReceiverRegistr
01b0  61 72 3a 31 0d 0a 0d 0a                           ar:1....

No.     Time           Source                Destination           Protocol Length Info
     15 4.000000       192.168.1.10          239.255.102.18        IGMPv2   46     Membership Report group 239.255.102.18

Frame 15: 46 bytes on wire (368 bits), 46 bytes captured (368 bits)
    Encapsulation type: Ethernet (1)
    Arrival Time: Aug 14, 2023 11:43:07.000000000 Paris, Madrid (heure d’été)
    UTC Arrival Time: Aug 14, 2023 09:43:07.000000000 UTC
    Epoch Arrival Time: 1692006187.000000000
    [Time shift for this packet: 0.000000000 seconds]
    [Time delta from previous captured frame: 1.000000000 seconds]
    [Time delta from previous displayed frame: 1.000000000 seconds]
    [Time since reference or first frame: 4.000000000 seconds]
    Frame Number: 15
    Frame Length: 46 bytes (368 bits)
    Capture Length: 46 bytes (368 bits)
    [Frame is marked: False]
    [Frame is ignored: False]
    [Protocols in frame: eth:ethertype:ip:igmp:igmp]
    [Coloring Rule Name: Routing]
    [Coloring Rule String: hsrp || eigrp || ospf || bgp || cdp || vrrp || carp || gvrp || igmp || ismp]
Ethernet II, Src: Intel_e9:06:7e (08:d2:3e:e9:06:7e), Dst: IPv4mcast_7f:66:12 (01:00:5e:7f:66:12)
    Destination: IPv4mcast_7f:66:12 (01:00:5e:7f:66:12)
        .... ..0. .... .... .... .... = LG bit: Globally unique address (factory default)
        .... ...1 .... .... .... .... = IG bit: Group address (multicast/broadcast)
    Source: Intel_e9:06:7e (08:d2:3e:e9:06:7e)
        .... ..0. .... .... .... .... = LG bit: Globally unique address (factory default)
        .... ...0 .... .... .... .... = IG bit: Individual address (unicast)
    Type: IPv4 (0x0800)
    [Stream index: 6]
Internet Protocol Version 4, Src: 192.168.1.10, Dst: 239.255.102.18
    0100 .... = Version: 4
    .... 0110 = Header Length: 24 bytes (6)
    Differentiated Services Field: 0x00 (DSCP: CS0, ECN: Not-ECT)
        0000 00.. = Differentiated Services Codepoint: Default (0)
        .... ..00 = Explicit Congestion Notification: Not ECN-Capable Transport (0)
    Total Length: 32
    Identification: 0xd56b (54635)
    000. .... = Flags: 0x0
        0... .... = Reserved bit: Not set
        .0.. .... = Don't fragment: Not set
        ..0. .... = More fragments: Not set
    ...0 0000 0000 0000 = Fragment Offset: 0
    Time to Live: 1
    Protocol: IGMP (2)
    Header Checksum: 0x0000 [validation disabled]
    [Header checksum status: Unverified]
    Source Address: 192.168.1.10
    Destination Address: 239.255.102.18
    Options: (4 bytes), Router Alert
        IP Option - Router Alert (4 bytes): Router shall examine packet (0)
            Type: 148
                1... .... = Copy on fragmentation: Yes
                .00. .... = Class: Control (0)
                ...1 0100 = Number: Router Alert (20)
            Length: 4
            Router Alert: Router shall examine packet (0)
    [Stream index: 6]
Internet Group Management Protocol
    [IGMP Version: 2]
    Type: Membership Report (0x16)
    Max Resp Time: 0,0 sec (0x00)
    Checksum: 0x93ed [correct]
    [Checksum Status: Good]
    Multicast Address: 239.255.102.18

0000  01 00 5e 7f 66 12 08 d2 3e e9 06 7e 08 00 46 00   ..^.f...>..~..F.
0010  00 20 d5 6b 00 00 01 02 00 00 c0 a8 01 0a ef ff   . .k............
0020  66 12 94 04 00 00 16 00 93 ed ef ff 66 12         f...........f.

No.     Time           Source                Destination           Protocol Length Info
     16 5.000000       192.168.1.13          239.255.255.253       IGMPv2   60     Membership Report group 239.255.255.253

Frame 16: 60 bytes on wire (480 bits), 60 bytes captured (480 bits)
    Encapsulation type: Ethernet (1)
    Arrival Time: Aug 14, 2023 11:43:08.000000000 Paris, Madrid (heure d’été)
    UTC Arrival Time: Aug 14, 2023 09:43:08.000000000 UTC
    Epoch Arrival Time: 1692006188.000000000
    [Time shift for this packet: 0.000000000 seconds]
    [Time delta from previous captured frame: 1.000000000 seconds]
    [Time delta from previous displayed frame: 1.000000000 seconds]
    [Time since reference or first frame: 5.000000000 seconds]
    Frame Number: 16
    Frame Length: 60 bytes (480 bits)
    Capture Length: 60 bytes (480 bits)
    [Frame is marked: False]
    [Frame is ignored: False]
    [Protocols in frame: eth:ethertype:ip:igmp:igmp]
    [Coloring Rule Name: Routing]
    [Coloring Rule String: hsrp || eigrp || ospf || bgp || cdp || vrrp || carp || gvrp || igmp || ismp]
Ethernet II, Src: GigaByteTech_31:7c:dd (1c:1b:0d:31:7c:dd), Dst: Intel_e9:06:7e (08:d2:3e:e9:06:7e)
    Destination: Intel_e9:06:7e (08:d2:3e:e9:06:7e)
        .... ..0. .... .... .... .... = LG bit: Globally unique address (factory default)
        .... ...0 .... .... .... .... = IG bit: Individual address (unicast)
    Source: GigaByteTech_31:7c:dd (1c:1b:0d:31:7c:dd)
        .... ..0. .... .... .... .... = LG bit: Globally unique address (factory default)
        .... ...0 .... .... .... .... = IG bit: Individual address (unicast)
    Type: IPv4 (0x0800)
    [Stream index: 7]
    Padding: 0000000000000000000000000000
Internet Protocol Version 4, Src: 192.168.1.13, Dst: 239.255.255.253
    0100 .... = Version: 4
    .... 0110 = Header Length: 24 bytes (6)
    Differentiated Services Field: 0x00 (DSCP: CS0, ECN: Not-ECT)
        0000 00.. = Differentiated Services Codepoint: Default (0)
        .... ..00 = Explicit Congestion Notification: Not ECN-Capable Transport (0)
    Total Length: 32
    Identification: 0x1b0f (6927)
    000. .... = Flags: 0x0
        0... .... = Reserved bit: Not set
        .0.. .... = Don't fragment: Not set
        ..0. .... = More fragments: Not set
    ...0 0000 0000 0000 = Fragment Offset: 0
    Time to Live: 1
    Protocol: IGMP (2)
    Header Checksum: 0x5816 [validation disabled]
    [Header checksum status: Unverified]
    Source Address: 192.168.1.13
    Destination Address: 239.255.255.253
    Options: (4 bytes), Router Alert
        IP Option - Router Alert (4 bytes): Router shall examine packet (0)
            Type: 148
                1... .... = Copy on fragmentation: Yes
                .00. .... = Class: Control (0)
                ...1 0100 = Number: Router Alert (20)
            Length: 4
            Router Alert: Router shall examine packet (0)
    [Stream index: 7]
Internet Group Management Protocol
    [IGMP Version: 2]
    Type: Membership Report (0x16)
    Max Resp Time: 0,0 sec (0x00)
    Checksum: 0xfa01 [correct]
    [Checksum Status: Good]
    Multicast Address: 239.255.255.253

0000  08 d2 3e e9 06 7e 1c 1b 0d 31 7c dd 08 00 46 00   ..>..~...1|...F.
0010  00 20 1b 0f 00 00 01 02 58 16 c0 a8 01 0d ef ff   . ......X.......
0020  ff fd 94 04 00 00 16 00 fa 01 ef ff ff fd 00 00   ................
0030  00 00 00 00 00 00 00 00 00 00 00 00               ............

No.     Time           Source                Destination           Protocol Length Info
     17 5.000000       IngramMicroS_4b:17:a0 Broadcast             ARP      60     Who has 192.168.1.19? Tell 192.168.1.1

Frame 17: 60 bytes on wire (480 bits), 60 bytes captured (480 bits)
    Encapsulation type: Ethernet (1)
    Arrival Time: Aug 14, 2023 11:43:08.000000000 Paris, Madrid (heure d’été)
    UTC Arrival Time: Aug 14, 2023 09:43:08.000000000 UTC
    Epoch Arrival Time: 1692006188.000000000
    [Time shift for this packet: 0.000000000 seconds]
    [Time delta from previous captured frame: 0.000000000 seconds]
    [Time delta from previous displayed frame: 0.000000000 seconds]
    [Time since reference or first frame: 5.000000000 seconds]
    Frame Number: 17
    Frame Length: 60 bytes (480 bits)
    Capture Length: 60 bytes (480 bits)
    [Frame is marked: False]
    [Frame is ignored: False]
    [Protocols in frame: eth:ethertype:arp]
    [Coloring Rule Name: ARP]
    [Coloring Rule String: arp]
Ethernet II, Src: IngramMicroS_4b:17:a0 (7c:c1:77:4b:17:a0), Dst: Broadcast (ff:ff:ff:ff:ff:ff)
    Destination: Broadcast (ff:ff:ff:ff:ff:ff)
        .... ..1. .... .... .... .... = LG bit: Locally administered address (this is NOT the factory default)
        .... ...1 .... .... .... .... = IG bit: Group address (multicast/broadcast)
    Source: IngramMicroS_4b:17:a0 (7c:c1:77:4b:17:a0)
        .... ..0. .... .... .... .... = LG bit: Globally unique address (factory default)
        .... ...0 .... .... .... .... = IG bit: Individual address (unicast)
    Type: ARP (0x0806)
    [Stream index: 8]
    Padding: 000000000000000000000000000000000000
Address Resolution Protocol (request)
    Hardware type: Ethernet (1)
    Protocol type: IPv4 (0x0800)
    Hardware size: 6
    Protocol size: 4
    Opcode: request (1)
    Sender MAC address: IngramMicroS_4b:17:a0 (7c:c1:77:4b:17:a0)
    Sender IP address: 192.168.1.1
    Target MAC address: 00:00:00_00:00:00 (00:00:00:00:00:00)
    Target IP address: 192.168.1.19

0000  ff ff ff ff ff ff 7c c1 77 4b 17 a0 08 06 00 01   ......|.wK......
0010  08 00 06 04 00 01 7c c1 77 4b 17 a0 c0 a8 01 01   ......|.wK......
0020  00 00 00 00 00 00 c0 a8 01 13 00 00 00 00 00 00   ................
0030  00 00 00 00 00 00 00 00 00 00 00 00               ............

No.     Time           Source                Destination           Protocol Length Info
     18 5.000000       fe80::7ec1:77ff:fe4b:17a0 ff02::1               ICMPv6   86     Neighbor Solicitation for 2a01:cb14:d31:4a00:24eb:4244:1c64:6284 from 7c:c1:77:4b:17:a0

Frame 18: 86 bytes on wire (688 bits), 86 bytes captured (688 bits)
    Encapsulation type: Ethernet (1)
    Arrival Time: Aug 14, 2023 11:43:08.000000000 Paris, Madrid (heure d’été)
    UTC Arrival Time: Aug 14, 2023 09:43:08.000000000 UTC
    Epoch Arrival Time: 1692006188.000000000
    [Time shift for this packet: 0.000000000 seconds]
    [Time delta from previous captured frame: 0.000000000 seconds]
    [Time delta from previous displayed frame: 0.000000000 seconds]
    [Time since reference or first frame: 5.000000000 seconds]
    Frame Number: 18
    Frame Length: 86 bytes (688 bits)
    Capture Length: 86 bytes (688 bits)
    [Frame is marked: False]
    [Frame is ignored: False]
    [Protocols in frame: eth:ethertype:ipv6:icmpv6]
    [Coloring Rule Name: ICMP]
    [Coloring Rule String: icmp || icmpv6]
Ethernet II, Src: IngramMicroS_4b:17:a0 (7c:c1:77:4b:17:a0), Dst: IPv6mcast_01 (33:33:00:00:00:01)
    Destination: IPv6mcast_01 (33:33:00:00:00:01)
        .... ..1. .... .... .... .... = LG bit: Locally administered address (this is NOT the factory default)
        .... ...1 .... .... .... .... = IG bit: Group address (multicast/broadcast)
    Source: IngramMicroS_4b:17:a0 (7c:c1:77:4b:17:a0)
        .... ..0. .... .... .... .... = LG bit: Globally unique address (factory default)
        .... ...0 .... .... .... .... = IG bit: Individual address (unicast)
    Type: IPv6 (0x86dd)
    [Stream index: 9]
Internet Protocol Version 6, Src: fe80::7ec1:77ff:fe4b:17a0, Dst: ff02::1
    0110 .... = Version: 6
    .... 1100 0000 .... .... .... .... .... = Traffic Class: 0xc0 (DSCP: CS6, ECN: Not-ECT)
        .... 1100 00.. .... .... .... .... .... = Differentiated Services Codepoint: Class Selector 6 (48)
        .... .... ..00 .... .... .... .... .... = Explicit Congestion Notification: Not ECN-Capable Transport (0)
    .... 0000 0000 0000 0000 0000 = Flow Label: 0x00000
    Payload Length: 32
    Next Header: ICMPv6 (58)
    Hop Limit: 255
    Source Address: fe80::7ec1:77ff:fe4b:17a0
        [Address Space: Link-Local Unicast]
        [Special-Purpose Allocation: Link-Local Unicast]
            [Source: True]
            [Destination: True]
            [Forwardable: False]
            [Globally Reachable: False]
            [Reserved-by-Protocol: True]
    Destination Address: ff02::1
        [Address Space: Multicast]
        [.... .... 0000 .... = Multicast Flags: 0x0]
            .... .... 0... .... = Reserved: 0
            .... .... .0.. .... = Rendezvous Point (RP): False
            .... .... ..0. .... = Network Prefix: False
            .... .... ...0 .... = Transient: False
        [.... .... .... 0010 = Multicast Scope: Link-Local scope (0x2)]
    [Source SLAAC MAC: IngramMicroS_4b:17:a0 (7c:c1:77:4b:17:a0)]
    [Stream index: 1]
Internet Control Message Protocol v6
    Type: Neighbor Solicitation (135)
    Code: 0
    Checksum: 0x2f66 [correct]
    [Checksum Status: Good]
    Reserved: 00000000
    Target Address: 2a01:cb14:d31:4a00:24eb:4244:1c64:6284
    ICMPv6 Option (Source link-layer address : 7c:c1:77:4b:17:a0)
        Type: Source link-layer address (1)
        Length: 1 (8 bytes)
        Link-layer address: IngramMicroS_4b:17:a0 (7c:c1:77:4b:17:a0)

0000  33 33 00 00 00 01 7c c1 77 4b 17 a0 86 dd 6c 00   33....|.wK....l.
0010  00 00 00 20 3a ff fe 80 00 00 00 00 00 00 7e c1   ... :.........~.
0020  77 ff fe 4b 17 a0 ff 02 00 00 00 00 00 00 00 00   w..K............
0030  00 00 00 00 00 01 87 00 2f 66 00 00 00 00 2a 01   ......../f....*.
0040  cb 14 0d 31 4a 00 24 eb 42 44 1c 64 62 84 01 01   ...1J.$.BD.db...
0050  7c c1 77 4b 17 a0                                 |.wK..

No.     Time           Source                Destination           Protocol Length Info
     19 5.000000       IngramMicroS_4b:17:a0 Broadcast             ARP      60     Who has 192.168.1.19? Tell 192.168.1.1

Frame 19: 60 bytes on wire (480 bits), 60 bytes captured (480 bits)
    Encapsulation type: Ethernet (1)
    Arrival Time: Aug 14, 2023 11:43:08.000000000 Paris, Madrid (heure d’été)
    UTC Arrival Time: Aug 14, 2023 09:43:08.000000000 UTC
    Epoch Arrival Time: 1692006188.000000000
    [Time shift for this packet: 0.000000000 seconds]
    [Time delta from previous captured frame: 0.000000000 seconds]
    [Time delta from previous displayed frame: 0.000000000 seconds]
    [Time since reference or first frame: 5.000000000 seconds]
    Frame Number: 19
    Frame Length: 60 bytes (480 bits)
    Capture Length: 60 bytes (480 bits)
    [Frame is marked: False]
    [Frame is ignored: False]
    [Protocols in frame: eth:ethertype:arp]
    [Coloring Rule Name: ARP]
    [Coloring Rule String: arp]
Ethernet II, Src: IngramMicroS_4b:17:a0 (7c:c1:77:4b:17:a0), Dst: Broadcast (ff:ff:ff:ff:ff:ff)
    Destination: Broadcast (ff:ff:ff:ff:ff:ff)
        .... ..1. .... .... .... .... = LG bit: Locally administered address (this is NOT the factory default)
        .... ...1 .... .... .... .... = IG bit: Group address (multicast/broadcast)
    Source: IngramMicroS_4b:17:a0 (7c:c1:77:4b:17:a0)
        .... ..0. .... .... .... .... = LG bit: Globally unique address (factory default)
        .... ...0 .... .... .... .... = IG bit: Individual address (unicast)
    Type: ARP (0x0806)
    [Stream index: 8]
    Padding: 000000000000000000000000000000000000
Address Resolution Protocol (request)
    Hardware type: Ethernet (1)
    Protocol type: IPv4 (0x0800)
    Hardware size: 6
    Protocol size: 4
    Opcode: request (1)
    Sender MAC address: IngramMicroS_4b:17:a0 (7c:c1:77:4b:17:a0)
    Sender IP address: 192.168.1.1
    Target MAC address: 00:00:00_00:00:00 (00:00:00:00:00:00)
    Target IP address: 192.168.1.19

0000  ff ff ff ff ff ff 7c c1 77 4b 17 a0 08 06 00 01   ......|.wK......
0010  08 00 06 04 00 01 7c c1 77 4b 17 a0 c0 a8 01 01   ......|.wK......
0020  00 00 00 00 00 00 c0 a8 01 13 00 00 00 00 00 00   ................
0030  00 00 00 00 00 00 00 00 00 00 00 00               ............

No.     Time           Source                Destination           Protocol Length Info
     20 7.000000       192.168.1.10          172.31.1.180          SNMP     120    get-request 1.3.6.1.2.1.25.3.2.1.5.1 1.3.6.1.2.1.25.3.5.1.1.1 1.3.6.1.2.1.25.3.5.1.2.1

Frame 20: 120 bytes on wire (960 bits), 120 bytes captured (960 bits)
    Encapsulation type: Ethernet (1)
    Arrival Time: Aug 14, 2023 11:43:10.000000000 Paris, Madrid (heure d’été)
    UTC Arrival Time: Aug 14, 2023 09:43:10.000000000 UTC
    Epoch Arrival Time: 1692006190.000000000
    [Time shift for this packet: 0.000000000 seconds]
    [Time delta from previous captured frame: 2.000000000 seconds]
    [Time delta from previous displayed frame: 2.000000000 seconds]
    [Time since reference or first frame: 7.000000000 seconds]
    Frame Number: 20
    Frame Length: 120 bytes (960 bits)
    Capture Length: 120 bytes (960 bits)
    [Frame is marked: False]
    [Frame is ignored: False]
    [Protocols in frame: eth:ethertype:ip:udp:snmp]
    [Coloring Rule Name: UDP]
    [Coloring Rule String: udp]
Ethernet II, Src: Intel_e9:06:7e (08:d2:3e:e9:06:7e), Dst: IngramMicroS_4b:17:a0 (7c:c1:77:4b:17:a0)
    Destination: IngramMicroS_4b:17:a0 (7c:c1:77:4b:17:a0)
        .... ..0. .... .... .... .... = LG bit: Globally unique address (factory default)
        .... ...0 .... .... .... .... = IG bit: Individual address (unicast)
    Source: Intel_e9:06:7e (08:d2:3e:e9:06:7e)
        .... ..0. .... .... .... .... = LG bit: Globally unique address (factory default)
        .... ...0 .... .... .... .... = IG bit: Individual address (unicast)
    Type: IPv4 (0x0800)
    [Stream index: 0]
Internet Protocol Version 4, Src: 192.168.1.10, Dst: 172.31.1.180
    0100 .... = Version: 4
    .... 0101 = Header Length: 20 bytes (5)
    Differentiated Services Field: 0x00 (DSCP: CS0, ECN: Not-ECT)
        0000 00.. = Differentiated Services Codepoint: Default (0)
        .... ..00 = Explicit Congestion Notification: Not ECN-Capable Transport (0)
    Total Length: 106
    Identification: 0x9a4b (39499)
    000. .... = Flags: 0x0
        0... .... = Reserved bit: Not set
        .0.. .... = Don't fragment: Not set
        ..0. .... = More fragments: Not set
    ...0 0000 0000 0000 = Fragment Offset: 0
    Time to Live: 128
    Protocol: UDP (17)
    Header Checksum: 0x0000 [validation disabled]
    [Header checksum status: Unverified]
    Source Address: 192.168.1.10
    Destination Address: 172.31.1.180
    [Stream index: 8]
User Datagram Protocol, Src Port: 59778, Dst Port: 161
    Source Port: 59778
    Destination Port: 161
    Length: 86
    Checksum: 0x6fed [unverified]
    [Checksum Status: Unverified]
    [Stream index: 1]
    [Stream Packet Number: 1]
    [Timestamps]
        [Time since first frame: 0.000000000 seconds]
        [Time since previous frame: 0.000000000 seconds]
    UDP payload (78 bytes)
Simple Network Management Protocol
    version: version-1 (0)
    community: public
    data: get-request (0)
        get-request
            request-id: 2263
            error-status: noError (0)
            error-index: 0
            variable-bindings: 3 items
                1.3.6.1.2.1.25.3.2.1.5.1: Value (Null)
                    Object Name: 1.3.6.1.2.1.25.3.2.1.5.1 (iso.3.6.1.2.1.25.3.2.1.5.1)
                    Value (Null)
                1.3.6.1.2.1.25.3.5.1.1.1: Value (Null)
                    Object Name: 1.3.6.1.2.1.25.3.5.1.1.1 (iso.3.6.1.2.1.25.3.5.1.1.1)
                    Value (Null)
                1.3.6.1.2.1.25.3.5.1.2.1: Value (Null)
                    Object Name: 1.3.6.1.2.1.25.3.5.1.2.1 (iso.3.6.1.2.1.25.3.5.1.2.1)
                    Value (Null)

0000  7c c1 77 4b 17 a0 08 d2 3e e9 06 7e 08 00 45 00   |.wK....>..~..E.
0010  00 6a 9a 4b 00 00 80 11 00 00 c0 a8 01 0a ac 1f   .j.K............
0020  01 b4 e9 82 00 a1 00 56 6f ed 30 4c 02 01 00 04   .......Vo.0L....
0030  06 70 75 62 6c 69 63 a0 3f 02 02 08 d7 02 01 00   .public.?.......
0040  02 01 00 30 33 30 0f 06 0b 2b 06 01 02 01 19 03   ...030...+......
0050  02 01 05 01 05 00 30 0f 06 0b 2b 06 01 02 01 19   ......0...+.....
0060  03 05 01 01 01 05 00 30 0f 06 0b 2b 06 01 02 01   .......0...+....
0070  19 03 05 01 02 01 05 00                           ........

No.     Time           Source                Destination           Protocol Length Info
     21 8.000000       192.168.1.1           224.0.0.251           MDNS     75     Standard query 0x0000 PTR _ssw._tcp.local, "QM" question

Frame 21: 75 bytes on wire (600 bits), 75 bytes captured (600 bits)
    Encapsulation type: Ethernet (1)
    Arrival Time: Aug 14, 2023 11:43:11.000000000 Paris, Madrid (heure d’été)
    UTC Arrival Time: Aug 14, 2023 09:43:11.000000000 UTC
    Epoch Arrival Time: 1692006191.000000000
    [Time shift for this packet: 0.000000000 seconds]
    [Time delta from previous captured frame: 1.000000000 seconds]
    [Time delta from previous displayed frame: 1.000000000 seconds]
    [Time since reference or first frame: 8.000000000 seconds]
    Frame Number: 21
    Frame Length: 75 bytes (600 bits)
    Capture Length: 75 bytes (600 bits)
    [Frame is marked: False]
    [Frame is ignored: False]
    [Protocols in frame: eth:ethertype:ip:udp:mdns]
    [Coloring Rule Name: UDP]
    [Coloring Rule String: udp]
Ethernet II, Src: IngramMicroS_4b:17:a0 (7c:c1:77:4b:17:a0), Dst: IPv4mcast_fb (01:00:5e:00:00:fb)
    Destination: IPv4mcast_fb (01:00:5e:00:00:fb)
        .... ..0. .... .... .... .... = LG bit: Globally unique address (factory default)
        .... ...1 .... .... .... .... = IG bit: Group address (multicast/broadcast)
    Source: IngramMicroS_4b:17:a0 (7c:c1:77:4b:17:a0)
        .... ..0. .... .... .... .... = LG bit: Globally unique address (factory default)
        .... ...0 .... .... .... .... = IG bit: Individual address (unicast)
    Type: IPv4 (0x0800)
    [Stream index: 10]
Internet Protocol Version 4, Src: 192.168.1.1, Dst: 224.0.0.251
    0100 .... = Version: 4
    .... 0101 = Header Length: 20 bytes (5)
    Differentiated Services Field: 0x00 (DSCP: CS0, ECN: Not-ECT)
        0000 00.. = Differentiated Services Codepoint: Default (0)
        .... ..00 = Explicit Congestion Notification: Not ECN-Capable Transport (0)
    Total Length: 61
    Identification: 0x0000 (0)
    010. .... = Flags: 0x2, Don't fragment
        0... .... = Reserved bit: Not set
        .1.. .... = Don't fragment: Set
        ..0. .... = More fragments: Not set
    ...0 0000 0000 0000 = Fragment Offset: 0
    Time to Live: 255
    Protocol: UDP (17)
    Header Checksum: 0xd90a [validation disabled]
    [Header checksum status: Unverified]
    Source Address: 192.168.1.1
    Destination Address: 224.0.0.251
    [Stream index: 9]
User Datagram Protocol, Src Port: 5353, Dst Port: 5353
    Source Port: 5353
    Destination Port: 5353
    Length: 41
    Checksum: 0x9e2c [unverified]
    [Checksum Status: Unverified]
    [Stream index: 2]
    [Stream Packet Number: 1]
    [Timestamps]
        [Time since first frame: 0.000000000 seconds]
        [Time since previous frame: 0.000000000 seconds]
    UDP payload (33 bytes)
Multicast Domain Name System (query)
    Transaction ID: 0x0000
    Flags: 0x0000 Standard query
        0... .... .... .... = Response: Message is a query
        .000 0... .... .... = Opcode: Standard query (0)
        .... ..0. .... .... = Truncated: Message is not truncated
        .... ...0 .... .... = Recursion desired: Don't do query recursively
        .... .... .0.. .... = Z: reserved (0)
        .... .... ...0 .... = Non-authenticated data: Unacceptable
    Questions: 1
    Answer RRs: 0
    Authority RRs: 0
    Additional RRs: 0
    Queries
        _ssw._tcp.local: type PTR, class IN, "QM" question
            Name: _ssw._tcp.local
            [Name Length: 15]
            [Label Count: 3]
            Type: PTR (12) (domain name PoinTeR)
            .000 0000 0000 0001 = Class: IN (0x0001)
            0... .... .... .... = "QU" question: False
    [Response In: 22]

0000  01 00 5e 00 00 fb 7c c1 77 4b 17 a0 08 00 45 00   ..^...|.wK....E.
0010  00 3d 00 00 40 00 ff 11 d9 0a c0 a8 01 01 e0 00   .=..@...........
0020  00 fb 14 e9 14 e9 00 29 9e 2c 00 00 00 00 00 01   .......).,......
0030  00 00 00 00 00 00 04 5f 73 73 77 04 5f 74 63 70   ......._ssw._tcp
0040  05 6c 6f 63 61 6c 00 00 0c 00 01                  .local.....

No.     Time           Source                Destination           Protocol Length Info
     22 8.000000       192.168.1.1           224.0.0.251           MDNS     244    Standard query response 0x0000 PTR mss_ssw_7C:C1:77:4B:17:A0 on mysmartwifi._ssw._tcp.local TXT, cache flush SRV, cache flush 0 0 8883 mysmartwifi.local A, cache flush 192.168.1.1

Frame 22: 244 bytes on wire (1952 bits), 244 bytes captured (1952 bits)
    Encapsulation type: Ethernet (1)
    Arrival Time: Aug 14, 2023 11:43:11.000000000 Paris, Madrid (heure d’été)
    UTC Arrival Time: Aug 14, 2023 09:43:11.000000000 UTC
    Epoch Arrival Time: 1692006191.000000000
    [Time shift for this packet: 0.000000000 seconds]
    [Time delta from previous captured frame: 0.000000000 seconds]
    [Time delta from previous displayed frame: 0.000000000 seconds]
    [Time since reference or first frame: 8.000000000 seconds]
    Frame Number: 22
    Frame Length: 244 bytes (1952 bits)
    Capture Length: 244 bytes (1952 bits)
    [Frame is marked: False]
    [Frame is ignored: False]
    [Protocols in frame: eth:ethertype:ip:udp:mdns]
    [Coloring Rule Name: UDP]
    [Coloring Rule String: udp]
Ethernet II, Src: IngramMicroS_4b:17:a0 (7c:c1:77:4b:17:a0), Dst: IPv4mcast_fb (01:00:5e:00:00:fb)
    Destination: IPv4mcast_fb (01:00:5e:00:00:fb)
        .... ..0. .... .... .... .... = LG bit: Globally unique address (factory default)
        .... ...1 .... .... .... .... = IG bit: Group address (multicast/broadcast)
    Source: IngramMicroS_4b:17:a0 (7c:c1:77:4b:17:a0)
        .... ..0. .... .... .... .... = LG bit: Globally unique address (factory default)
        .... ...0 .... .... .... .... = IG bit: Individual address (unicast)
    Type: IPv4 (0x0800)
    [Stream index: 10]
Internet Protocol Version 4, Src: 192.168.1.1, Dst: 224.0.0.251
    0100 .... = Version: 4
    .... 0101 = Header Length: 20 bytes (5)
    Differentiated Services Field: 0x00 (DSCP: CS0, ECN: Not-ECT)
        0000 00.. = Differentiated Services Codepoint: Default (0)
        .... ..00 = Explicit Congestion Notification: Not ECN-Capable Transport (0)
    Total Length: 230
    Identification: 0x0000 (0)
    010. .... = Flags: 0x2, Don't fragment
        0... .... = Reserved bit: Not set
        .1.. .... = Don't fragment: Set
        ..0. .... = More fragments: Not set
    ...0 0000 0000 0000 = Fragment Offset: 0
    Time to Live: 255
    Protocol: UDP (17)
    Header Checksum: 0xd861 [validation disabled]
    [Header checksum status: Unverified]
    Source Address: 192.168.1.1
    Destination Address: 224.0.0.251
    [Stream index: 9]
User Datagram Protocol, Src Port: 5353, Dst Port: 5353
    Source Port: 5353
    Destination Port: 5353
    Length: 210
    Checksum: 0x175f [unverified]
    [Checksum Status: Unverified]
    [Stream index: 2]
    [Stream Packet Number: 2]
    [Timestamps]
        [Time since first frame: 0.000000000 seconds]
        [Time since previous frame: 0.000000000 seconds]
    UDP payload (202 bytes)
Multicast Domain Name System (response)
    Transaction ID: 0x0000
    Flags: 0x8400 Standard query response, No error
        1... .... .... .... = Response: Message is a response
        .000 0... .... .... = Opcode: Standard query (0)
        .... .1.. .... .... = Authoritative: Server is an authority for domain
        .... ..0. .... .... = Truncated: Message is not truncated
        .... ...0 .... .... = Recursion desired: Don't do query recursively
        .... .... 0... .... = Recursion available: Server can't do recursive queries
        .... .... .0.. .... = Z: reserved (0)
        .... .... ..0. .... = Answer authenticated: Answer/authority portion was not authenticated by the server
        .... .... ...0 .... = Non-authenticated data: Unacceptable
        .... .... .... 0000 = Reply code: No error (0)
    Questions: 0
    Answer RRs: 4
    Authority RRs: 0
    Additional RRs: 0
    Answers
        _ssw._tcp.local: type PTR, class IN, mss_ssw_7C:C1:77:4B:17:A0 on mysmartwifi._ssw._tcp.local
            Name: _ssw._tcp.local
            Type: PTR (12) (domain name PoinTeR)
            .000 0000 0000 0001 = Class: IN (0x0001)
            0... .... .... .... = Cache flush: False
            Time to live: 4500 (1 hour, 15 minutes)
            Data length: 43
            Domain Name: mss_ssw_7C:C1:77:4B:17:A0 on mysmartwifi._ssw._tcp.local
        mss_ssw_7C:C1:77:4B:17:A0 on mysmartwifi._ssw._tcp.local: type TXT, class IN, cache flush
            Name: mss_ssw_7C:C1:77:4B:17:A0 on mysmartwifi._ssw._tcp.local
            Type: TXT (16) (Text strings)
            .000 0000 0000 0001 = Class: IN (0x0001)
            1... .... .... .... = Cache flush: True
            Time to live: 4500 (1 hour, 15 minutes)
            Data length: 60
            TXT Length: 11
            TXT: mode=master
            TXT Length: 19
            TXT: capabilities=master
            TXT Length: 27
            TXT: networkid=7c:c1:77:4b:17:a0
        mss_ssw_7C:C1:77:4B:17:A0 on mysmartwifi._ssw._tcp.local: type SRV, class IN, cache flush, priority 0, weight 0, port 8883, target mysmartwifi.local
            Instance: mss_ssw_7C:C1:77:4B:17:A0 on mysmartwifi
            Service: _ssw
            Protocol: _tcp
            Name: local
            Type: SRV (33) (Server Selection)
            .000 0000 0000 0001 = Class: IN (0x0001)
            1... .... .... .... = Cache flush: True
            Time to live: 120 (2 minutes)
            Data length: 20
            Priority: 0
            Weight: 0
            Port: 8883
            Target: mysmartwifi.local
        mysmartwifi.local: type A, class IN, cache flush, addr 192.168.1.1
            Name: mysmartwifi.local
            Type: A (1) (Host Address)
            .000 0000 0000 0001 = Class: IN (0x0001)
            1... .... .... .... = Cache flush: True
            Time to live: 120 (2 minutes)
            Data length: 4
            Address: 192.168.1.1
    [Request In: 21]
    [Time: 0.000000000 seconds]

0000  01 00 5e 00 00 fb 7c c1 77 4b 17 a0 08 00 45 00   ..^...|.wK....E.
0010  00 e6 00 00 40 00 ff 11 d8 61 c0 a8 01 01 e0 00   ....@....a......
0020  00 fb 14 e9 14 e9 00 d2 17 5f 00 00 84 00 00 00   ........._......
0030  00 04 00 00 00 00 04 5f 73 73 77 04 5f 74 63 70   ......._ssw._tcp
0040  05 6c 6f 63 61 6c 00 00 0c 00 01 00 00 11 94 00   .local..........
0050  2b 28 6d 73 73 5f 73 73 77 5f 37 43 3a 43 31 3a   +(mss_ssw_7C:C1:
0060  37 37 3a 34 42 3a 31 37 3a 41 30 20 6f 6e 20 6d   77:4B:17:A0 on m
0070  79 73 6d 61 72 74 77 69 66 69 c0 0c c0 27 00 10   ysmartwifi...'..
0080  80 01 00 00 11 94 00 3c 0b 6d 6f 64 65 3d 6d 61   .......<.mode=ma
0090  73 74 65 72 13 63 61 70 61 62 69 6c 69 74 69 65   ster.capabilitie
00a0  73 3d 6d 61 73 74 65 72 1b 6e 65 74 77 6f 72 6b   s=master.network
00b0  69 64 3d 37 63 3a 63 31 3a 37 37 3a 34 62 3a 31   id=7c:c1:77:4b:1
00c0  37 3a 61 30 c0 27 00 21 80 01 00 00 00 78 00 14   7:a0.'.!.....x..
00d0  00 00 00 00 22 b3 0b 6d 79 73 6d 61 72 74 77 69   ...."..mysmartwi
00e0  66 69 c0 16 c0 ac 00 01 80 01 00 00 00 78 00 04   fi...........x..
00f0  c0 a8 01 01                                       ....

No.     Time           Source                Destination           Protocol Length Info
     23 12.000000      192.168.1.10          84.17.42.168          TCP      55     [TCP Keep-Alive] 46073 → 443 [ACK] Seq=1 Ack=1 Win=511 Len=1

Frame 23: 55 bytes on wire (440 bits), 55 bytes captured (440 bits)
    Encapsulation type: Ethernet (1)
    Arrival Time: Aug 14, 2023 11:43:15.000000000 Paris, Madrid (heure d’été)
    UTC Arrival Time: Aug 14, 2023 09:43:15.000000000 UTC
    Epoch Arrival Time: 1692006195.000000000
    [Time shift for this packet: 0.000000000 seconds]
    [Time delta from previous captured frame: 4.000000000 seconds]
    [Time delta from previous displayed frame: 4.000000000 seconds]
    [Time since reference or first frame: 12.000000000 seconds]
    Frame Number: 23
    Frame Length: 55 bytes (440 bits)
    Capture Length: 55 bytes (440 bits)
    [Frame is marked: False]
    [Frame is ignored: False]
    [Protocols in frame: eth:ethertype:ip:tcp]
    [Coloring Rule Name: TCP]
    [Coloring Rule String: tcp]
Ethernet II, Src: Intel_e9:06:7e (08:d2:3e:e9:06:7e), Dst: IngramMicroS_4b:17:a0 (7c:c1:77:4b:17:a0)
    Destination: IngramMicroS_4b:17:a0 (7c:c1:77:4b:17:a0)
        .... ..0. .... .... .... .... = LG bit: Globally unique address (factory default)
        .... ...0 .... .... .... .... = IG bit: Individual address (unicast)
    Source: Intel_e9:06:7e (08:d2:3e:e9:06:7e)
        .... ..0. .... .... .... .... = LG bit: Globally unique address (factory default)
        .... ...0 .... .... .... .... = IG bit: Individual address (unicast)
    Type: IPv4 (0x0800)
    [Stream index: 0]
Internet Protocol Version 4, Src: 192.168.1.10, Dst: 84.17.42.168
    0100 .... = Version: 4
    .... 0101 = Header Length: 20 bytes (5)
    Differentiated Services Field: 0x00 (DSCP: CS0, ECN: Not-ECT)
        0000 00.. = Differentiated Services Codepoint: Default (0)
        .... ..00 = Explicit Congestion Notification: Not ECN-Capable Transport (0)
    Total Length: 41
    Identification: 0x798e (31118)
    010. .... = Flags: 0x2, Don't fragment
        0... .... = Reserved bit: Not set
        .1.. .... = Don't fragment: Set
        ..0. .... = More fragments: Not set
    ...0 0000 0000 0000 = Fragment Offset: 0
    Time to Live: 128
    Protocol: TCP (6)
    Header Checksum: 0x0000 [validation disabled]
    [Header checksum status: Unverified]
    Source Address: 192.168.1.10
    Destination Address: 84.17.42.168
    [Stream index: 4]
Transmission Control Protocol, Src Port: 46073, Dst Port: 443, Seq: 1, Ack: 1, Len: 1
    Source Port: 46073
    Destination Port: 443
    [Stream index: 0]
    [Stream Packet Number: 3]
    [Conversation completeness: Incomplete (12)]
        ..0. .... = RST: Absent
        ...0 .... = FIN: Absent
        .... 1... = Data: Present
        .... .1.. = ACK: Present
        .... ..0. = SYN-ACK: Absent
        .... ...0 = SYN: Absent
        [Completeness Flags: ··DA··]
    [TCP Segment Len: 1]
    Sequence Number: 1    (relative sequence number)
    Sequence Number (raw): 2513741423
    [Next Sequence Number: 2    (relative sequence number)]
    Acknowledgment Number: 1    (relative ack number)
    Acknowledgment number (raw): 539834574
    0101 .... = Header Length: 20 bytes (5)
    Flags: 0x010 (ACK)
        000. .... .... = Reserved: Not set
        ...0 .... .... = Accurate ECN: Not set
        .... 0... .... = Congestion Window Reduced: Not set
        .... .0.. .... = ECN-Echo: Not set
        .... ..0. .... = Urgent: Not set
        .... ...1 .... = Acknowledgment: Set
        .... .... 0... = Push: Not set
        .... .... .0.. = Reset: Not set
        .... .... ..0. = Syn: Not set
        .... .... ...0 = Fin: Not set
        [TCP Flags: ·······A····]
    Window: 511
    [Calculated window size: 511]
    [Window size scaling factor: -1 (unknown)]
    Checksum: 0x4087 [unverified]
    [Checksum Status: Unverified]
    Urgent Pointer: 0
    [Timestamps]
        [Time since first frame in this TCP stream: 10.000000000 seconds]
        [Time since previous frame in this TCP stream: 10.000000000 seconds]
    [SEQ/ACK analysis]
        [TCP Analysis Flags]
            [Expert Info (Note/Sequence): TCP keep-alive segment]
                [TCP keep-alive segment]
                [Severity level: Note]
                [Group: Sequence]
    TCP payload (1 byte)
    Retransmitted TCP segment data (1 byte)

0000  7c c1 77 4b 17 a0 08 d2 3e e9 06 7e 08 00 45 00   |.wK....>..~..E.
0010  00 29 79 8e 40 00 80 06 00 00 c0 a8 01 0a 54 11   .)y.@.........T.
0020  2a a8 b3 f9 01 bb 95 d4 a6 6f 20 2d 38 ce 50 10   *........o -8.P.
0030  01 ff 40 87 00 00 00                              ..@....

No.     Time           Source                Destination           Protocol Length Info
     24 12.000000      84.17.42.168          192.168.1.10          TCP      66     [TCP Keep-Alive ACK] 443 → 46073 [ACK] Seq=1 Ack=2 Win=501 Len=0 SLE=1 SRE=2

Frame 24: 66 bytes on wire (528 bits), 66 bytes captured (528 bits)
    Encapsulation type: Ethernet (1)
    Arrival Time: Aug 14, 2023 11:43:15.000000000 Paris, Madrid (heure d’été)
    UTC Arrival Time: Aug 14, 2023 09:43:15.000000000 UTC
    Epoch Arrival Time: 1692006195.000000000
    [Time shift for this packet: 0.000000000 seconds]
    [Time delta from previous captured frame: 0.000000000 seconds]
    [Time delta from previous displayed frame: 0.000000000 seconds]
